{
	"data": {
		"bytecode": {
			"linkReferences": {},
			"object": "60806040523480156200001157600080fd5b506040516200245538038062002455833981810160405281019062000037919062000284565b60008251116200007e576040517f08c379a0000000000000000000000000000000000000000000000000000000008152600401620000759062000390565b60405180910390fd5b6000815111620000c5576040517f08c379a0000000000000000000000000000000000000000000000000000000008152600401620000bc9062000428565b60405180910390fd5b8160019081620000d6919062000695565b508060029081620000e8919062000695565b5050506200077c565b6000604051905090565b600080fd5b600080fd5b600080fd5b600080fd5b6000601f19601f8301169050919050565b7f4e487b7100000000000000000000000000000000000000000000000000000000600052604160045260246000fd5b6200015a826200010f565b810181811067ffffffffffffffff821117156200017c576200017b62000120565b5b80604052505050565b600062000191620000f1565b90506200019f82826200014f565b919050565b600067ffffffffffffffff821115620001c257620001c162000120565b5b620001cd826200010f565b9050602081019050919050565b60005b83811015620001fa578082015181840152602081019050620001dd565b60008484015250505050565b60006200021d6200021784620001a4565b62000185565b9050828152602081018484840111156200023c576200023b6200010a565b5b62000249848285620001da565b509392505050565b600082601f83011262000269576200026862000105565b5b81516200027b84826020860162000206565b91505092915050565b600080604083850312156200029e576200029d620000fb565b5b600083015167ffffffffffffffff811115620002bf57620002be62000100565b5b620002cd8582860162000251565b925050602083015167ffffffffffffffff811115620002f157620002f062000100565b5b620002ff8582860162000251565b9150509250929050565b600082825260208201905092915050565b7f4964656e7469666965722063616e6e6f7420626520656d70747520737472696e60008201527f672e000000000000000000000000000000000000000000000000000000000000602082015250565b60006200037860228362000309565b915062000385826200031a565b604082019050919050565b60006020820190508181036000830152620003ab8162000369565b9050919050565b7f5075626c69634b65792063616e6e6f74206265206f66206c656e677468207a6560008201527f726f2e0000000000000000000000000000000000000000000000000000000000602082015250565b60006200041060238362000309565b91506200041d82620003b2565b604082019050919050565b60006020820190508181036000830152620004438162000401565b9050919050565b600081519050919050565b7f4e487b7100000000000000000000000000000000000000000000000000000000600052602260045260246000fd5b600060028204905060018216806200049d57607f821691505b602082108103620004b357620004b262000455565b5b50919050565b60008190508160005260206000209050919050565b60006020601f8301049050919050565b600082821b905092915050565b6000600883026200051d7fffffffffffffffffffffffffffffffffffffffffffffffffffffffffffffffff82620004de565b620005298683620004de565b95508019841693508086168417925050509392505050565b6000819050919050565b6000819050919050565b600062000576620005706200056a8462000541565b6200054b565b62000541565b9050919050565b6000819050919050565b620005928362000555565b620005aa620005a1826200057d565b848454620004eb565b825550505050565b600090565b620005c1620005b2565b620005ce81848462000587565b505050565b5b81811015620005f657620005ea600082620005b7565b600181019050620005d4565b5050565b601f82111562000645576200060f81620004b9565b6200061a84620004ce565b810160208510156200062a578190505b620006426200063985620004ce565b830182620005d3565b50505b505050565b600082821c905092915050565b60006200066a600019846008026200064a565b1980831691505092915050565b600062000685838362000657565b9150826002028217905092915050565b620006a0826200044a565b67ffffffffffffffff811115620006bc57620006bb62000120565b5b620006c8825462000484565b620006d5828285620005fa565b600060209050601f8311600181146200070d5760008415620006f8578287015190505b62000704858262000677565b86555062000774565b601f1984166200071d86620004b9565b60005b82811015620007475784890151825560018201915060208501945060208101905062000720565b8683101562000767578489015162000763601f89168262000657565b8355505b6001600288020188555050505b505050505050565b611cc9806200078c6000396000f3fe60806040523480156200001157600080fd5b5060043610620000525760003560e01c806363ffab3114620000575780637998a1c414620000795780638da5cb5b146200009b578063dfae7d2514620000bd575b600080fd5b62000061620000f3565b60405162000070919062000338565b60405180910390f35b6200008362000189565b60405162000092919062000338565b60405180910390f35b620000a56200021f565b604051620000b49190620003a1565b60405180910390f35b620000db6004803603810190620000d5919062000436565b62000243565b604051620000ea91906200052f565b60405180910390f35b6002805462000102906200057b565b80601f016020809104026020016040519081016040528092919081815260200182805462000130906200057b565b8015620001815780601f10620001555761010080835404028352916020019162000181565b820191906000526020600020905b8154815290600101906020018083116200016357829003601f168201915b505050505081565b6001805462000198906200057b565b80601f0160208091040260200160405190810160405280929190818152602001828054620001c6906200057b565b8015620002175780601f10620001eb5761010080835404028352916020019162000217565b820191906000526020600020905b815481529060010190602001808311620001f957829003601f168201915b505050505081565b60008054906101000a900473ffffffffffffffffffffffffffffffffffffffff1681565b60008484848430604051620002589062000290565b6200026895949392919062000617565b604051809103906000f08015801562000285573d6000803e3d6000fd5b509050949350505050565b61162d806200066783390190565b600081519050919050565b600082825260208201905092915050565b60005b83811015620002da578082015181840152602081019050620002bd565b60008484015250505050565b6000601f19601f8301169050919050565b600062000304826200029e565b620003108185620002a9565b935062000322818560208601620002ba565b6200032d81620002e6565b840191505092915050565b60006020820190508181036000830152620003548184620002f7565b905092915050565b600073ffffffffffffffffffffffffffffffffffffffff82169050919050565b600062000389826200035c565b9050919050565b6200039b816200037c565b82525050565b6000602082019050620003b8600083018462000390565b92915050565b600080fd5b600080fd5b600080fd5b600080fd5b600080fd5b60008083601f840112620003f057620003ef620003c8565b5b8235905067ffffffffffffffff81111562000410576200040f620003cd565b5b6020830191508360018202830111156200042f576200042e620003d2565b5b9250929050565b60008060008060408587031215620004535762000452620003be565b5b600085013567ffffffffffffffff811115620004745762000473620003c3565b5b6200048287828801620003d7565b9450945050602085013567ffffffffffffffff811115620004a857620004a7620003c3565b5b620004b687828801620003d7565b925092505092959194509250565b6000819050919050565b6000620004ef620004e9620004e3846200035c565b620004c4565b6200035c565b9050919050565b60006200050382620004ce565b9050919050565b60006200051782620004f6565b9050919050565b62000529816200050a565b82525050565b60006020820190506200054660008301846200051e565b92915050565b7f4e487b7100000000000000000000000000000000000000000000000000000000600052602260045260246000fd5b600060028204905060018216806200059457607f821691505b602082108103620005aa57620005a96200054c565b5b50919050565b82818337600083830152505050565b6000620005cd8385620002a9565b9350620005dc838584620005b0565b620005e783620002e6565b840190509392505050565b6000620005ff82620004f6565b9050919050565b6200061181620005f2565b82525050565b6000606082019050818103600083015262000634818789620005bf565b905081810360208301526200064b818587620005bf565b90506200065c604083018462000606565b969550505050505056fe60806040523480156200001157600080fd5b506040516200162d3803806200162d8339818101604052810190620000379190620002f8565b60008351116200007e576040517f08c379a0000000000000000000000000000000000000000000000000000000008152600401620000759062000419565b60405180910390fd5b82600090816200008f919062000686565b5080600260006101000a81548173ffffffffffffffffffffffffffffffffffffffff021916908373ffffffffffffffffffffffffffffffffffffffff1602179055508160019081620000e2919062000686565b505050506200076d565b6000604051905090565b600080fd5b600080fd5b600080fd5b600080fd5b6000601f19601f8301169050919050565b7f4e487b7100000000000000000000000000000000000000000000000000000000600052604160045260246000fd5b62000155826200010a565b810181811067ffffffffffffffff821117156200017757620001766200011b565b5b80604052505050565b60006200018c620000ec565b90506200019a82826200014a565b919050565b600067ffffffffffffffff821115620001bd57620001bc6200011b565b5b620001c8826200010a565b9050602081019050919050565b60005b83811015620001f5578082015181840152602081019050620001d8565b60008484015250505050565b60006200021862000212846200019f565b62000180565b90508281526020810184848401111562000237576200023662000105565b5b62000244848285620001d5565b509392505050565b600082601f83011262000264576200026362000100565b5b81516200027684826020860162000201565b91505092915050565b600073ffffffffffffffffffffffffffffffffffffffff82169050919050565b6000620002ac826200027f565b9050919050565b6000620002c0826200029f565b9050919050565b620002d281620002b3565b8114620002de57600080fd5b50565b600081519050620002f281620002c7565b92915050565b600080600060608486031215620003145762000313620000f6565b5b600084015167ffffffffffffffff811115620003355762000334620000fb565b5b62000343868287016200024c565b935050602084015167ffffffffffffffff811115620003675762000366620000fb565b5b62000375868287016200024c565b92505060406200038886828701620002e1565b9150509250925092565b600082825260208201905092915050565b7f4964656e7469666965722063616e6e6f7420626520656d70747520737472696e60008201527f672e000000000000000000000000000000000000000000000000000000000000602082015250565b60006200040160228362000392565b91506200040e82620003a3565b604082019050919050565b600060208201905081810360008301526200043481620003f2565b9050919050565b600081519050919050565b7f4e487b7100000000000000000000000000000000000000000000000000000000600052602260045260246000fd5b600060028204905060018216806200048e57607f821691505b602082108103620004a457620004a362000446565b5b50919050565b60008190508160005260206000209050919050565b60006020601f8301049050919050565b600082821b905092915050565b6000600883026200050e7fffffffffffffffffffffffffffffffffffffffffffffffffffffffffffffffff82620004cf565b6200051a8683620004cf565b95508019841693508086168417925050509392505050565b6000819050919050565b6000819050919050565b600062000567620005616200055b8462000532565b6200053c565b62000532565b9050919050565b6000819050919050565b620005838362000546565b6200059b62000592826200056e565b848454620004dc565b825550505050565b600090565b620005b2620005a3565b620005bf81848462000578565b505050565b5b81811015620005e757620005db600082620005a8565b600181019050620005c5565b5050565b601f82111562000636576200060081620004aa565b6200060b84620004bf565b810160208510156200061b578190505b620006336200062a85620004bf565b830182620005c4565b50505b505050565b600082821c905092915050565b60006200065b600019846008026200063b565b1980831691505092915050565b600062000676838362000648565b9150826002028217905092915050565b62000691826200043b565b67ffffffffffffffff811115620006ad57620006ac6200011b565b5b620006b9825462000475565b620006c6828285620005eb565b600060209050601f831160018114620006fe5760008415620006e9578287015190505b620006f5858262000668565b86555062000765565b601f1984166200070e86620004aa565b60005b82811015620007385784890151825560018201915060208501945060208101905062000711565b8683101562000758578489015162000754601f89168262000648565b8355505b6001600288020188555050505b505050505050565b610eb0806200077d6000396000f3fe608060405234801561001057600080fd5b50600436106100625760003560e01c80630332d9b91461006757806314aeb4d6146100975780635600f04f146100c75780637998a1c4146100e55780637a014b5c146101035780638da5cb5b14610121575b600080fd5b610081600480360381019061007c91906103b5565b61013f565b60405161008e9190610461565b60405180910390f35b6100b160048036038101906100ac91906104cc565b61017e565b6040516100be9190610461565b60405180910390f35b6100cf610225565b6040516100dc9190610589565b60405180910390f35b6100ed6102b3565b6040516100fa9190610589565b60405180910390f35b61010b610341565b60405161011891906105ba565b60405180910390f35b610129610347565b60405161013691906105f6565b60405180910390f35b6004818154811061014f57600080fd5b906000526020600020016000915054906101000a900473ffffffffffffffffffffffffffffffffffffffff1681565b600080823060405161018f9061036d565b61019a929190610632565b604051809103906000f0801580156101b6573d6000803e3d6000fd5b5090506004819080600181540180825580915050600190039060005260206000200160009091909190916101000a81548173ffffffffffffffffffffffffffffffffffffffff021916908373ffffffffffffffffffffffffffffffffffffffff16021790555080915050919050565b600180546102329061068a565b80601f016020809104026020016040519081016040528092919081815260200182805461025e9061068a565b80156102ab5780601f10610280576101008083540402835291602001916102ab565b820191906000526020600020905b81548152906001019060200180831161028e57829003601f168201915b505050505081565b600080546102c09061068a565b80601f01602080910402602001604051908101604052809291908181526020018280546102ec9061068a565b80156103395780601f1061030e57610100808354040283529160200191610339565b820191906000526020600020905b81548152906001019060200180831161031c57829003601f168201915b505050505081565b60035481565b600260009054906101000a900473ffffffffffffffffffffffffffffffffffffffff1681565b6107bf806106bc83390190565b600080fd5b6000819050919050565b6103928161037f565b811461039d57600080fd5b50565b6000813590506103af81610389565b92915050565b6000602082840312156103cb576103ca61037a565b5b60006103d9848285016103a0565b91505092915050565b600073ffffffffffffffffffffffffffffffffffffffff82169050919050565b6000819050919050565b600061042761042261041d846103e2565b610402565b6103e2565b9050919050565b60006104398261040c565b9050919050565b600061044b8261042e565b9050919050565b61045b81610440565b82525050565b60006020820190506104766000830184610452565b92915050565b6000610487826103e2565b9050919050565b60006104998261047c565b9050919050565b6104a98161048e565b81146104b457600080fd5b50565b6000813590506104c6816104a0565b92915050565b6000602082840312156104e2576104e161037a565b5b60006104f0848285016104b7565b91505092915050565b600081519050919050565b600082825260208201905092915050565b60005b83811015610533578082015181840152602081019050610518565b60008484015250505050565b6000601f19601f8301169050919050565b600061055b826104f9565b6105658185610504565b9350610575818560208601610515565b61057e8161053f565b840191505092915050565b600060208201905081810360008301526105a38184610550565b905092915050565b6105b48161037f565b82525050565b60006020820190506105cf60008301846105ab565b92915050565b60006105e08261042e565b9050919050565b6105f0816105d5565b82525050565b600060208201905061060b60008301846105e7565b92915050565b600061061c8261042e565b9050919050565b61062c81610611565b82525050565b600060408201905061064760008301856105e7565b6106546020830184610623565b9392505050565b7f4e487b7100000000000000000000000000000000000000000000000000000000600052602260045260246000fd5b600060028204905060018216806106a257607f821691505b6020821081036106b5576106b461065b565b5b5091905056fe60806040526000600160146101000a81548160ff02191690831515021790555034801561002b57600080fd5b506040516107bf3803806107bf833981810160405281019061004d9190610188565b816000806101000a81548173ffffffffffffffffffffffffffffffffffffffff021916908373ffffffffffffffffffffffffffffffffffffffff16021790555080600160006101000a81548173ffffffffffffffffffffffffffffffffffffffff021916908373ffffffffffffffffffffffffffffffffffffffff16021790555050506101c8565b600080fd5b600073ffffffffffffffffffffffffffffffffffffffff82169050919050565b6000610105826100da565b9050919050565b6000610117826100fa565b9050919050565b6101278161010c565b811461013257600080fd5b50565b6000815190506101448161011e565b92915050565b6000610155826100fa565b9050919050565b6101658161014a565b811461017057600080fd5b50565b6000815190506101828161015c565b92915050565b6000806040838503121561019f5761019e6100d5565b5b60006101ad85828601610135565b92505060206101be85828601610173565b9150509250929050565b6105e8806101d76000396000f3fe608060405234801561001057600080fd5b50600436106100365760003560e01c80631bcbf15f1461003b578063bb1f548a14610057575b600080fd5b61005560048036038101906100509190610211565b610061565b005b61005f610115565b005b3373ffffffffffffffffffffffffffffffffffffffff16600160009054906101000a900473ffffffffffffffffffffffffffffffffffffffff1673ffffffffffffffffffffffffffffffffffffffff1673ffffffffffffffffffffffffffffffffffffffff16146100d157600080fd5b8383600291826100e29291906104e2565b508181600391826100f49291906104e2565b5060018060146101000a81548160ff02191690831515021790555050505050565b3373ffffffffffffffffffffffffffffffffffffffff16600160009054906101000a900473ffffffffffffffffffffffffffffffffffffffff1673ffffffffffffffffffffffffffffffffffffffff1673ffffffffffffffffffffffffffffffffffffffff161461018557600080fd5b6000600160146101000a81548160ff021916908315150217905550565b600080fd5b600080fd5b600080fd5b600080fd5b600080fd5b60008083601f8401126101d1576101d06101ac565b5b8235905067ffffffffffffffff8111156101ee576101ed6101b1565b5b60208301915083600182028301111561020a576102096101b6565b5b9250929050565b6000806000806040858703121561022b5761022a6101a2565b5b600085013567ffffffffffffffff811115610249576102486101a7565b5b610255878288016101bb565b9450945050602085013567ffffffffffffffff811115610278576102776101a7565b5b610284878288016101bb565b925092505092959194509250565b600082905092915050565b7f4e487b7100000000000000000000000000000000000000000000000000000000600052604160045260246000fd5b7f4e487b7100000000000000000000000000000000000000000000000000000000600052602260045260246000fd5b6000600282049050600182168061031357607f821691505b602082108103610326576103256102cc565b5b50919050565b60008190508160005260206000209050919050565b60006020601f8301049050919050565b600082821b905092915050565b60006008830261038e7fffffffffffffffffffffffffffffffffffffffffffffffffffffffffffffffff82610351565b6103988683610351565b95508019841693508086168417925050509392505050565b6000819050919050565b6000819050919050565b60006103df6103da6103d5846103b0565b6103ba565b6103b0565b9050919050565b6000819050919050565b6103f9836103c4565b61040d610405826103e6565b84845461035e565b825550505050565b600090565b610422610415565b61042d8184846103f0565b505050565b5b818110156104515761044660008261041a565b600181019050610433565b5050565b601f821115610496576104678161032c565b61047084610341565b8101602085101561047f578190505b61049361048b85610341565b830182610432565b50505b505050565b600082821c905092915050565b60006104b96000198460080261049b565b1980831691505092915050565b60006104d283836104a8565b9150826002028217905092915050565b6104ec8383610292565b67ffffffffffffffff8111156105055761050461029d565b5b61050f82546102fb565b61051a828285610455565b6000601f8311600181146105495760008415610537578287013590505b61054185826104c6565b8655506105a9565b601f1984166105578661032c565b60005b8281101561057f5784890135825560018201915060208501945060208101905061055a565b8683101561059c5784890135610598601f8916826104a8565b8355505b6001600288020188555050505b5050505050505056fea26469706673582212201a9c7832ded41b922476207434ed6a8979e92a303c6c9743de0a516d046f71a964736f6c63430008110033a26469706673582212205f64244bf14082aac466591d198ca2ce4dbff583842318cfee6bacf0e2406f9364736f6c63430008110033a26469706673582212205f83d449a79680ee73b77d87d2b281f3c3d9fdffeef1ab186ac2a35c20fc09d464736f6c63430008110033",
			"opcodes": "PUSH1 0x80 PUSH1 0x40 MSTORE CALLVALUE DUP1 ISZERO PUSH3 0x11 JUMPI PUSH1 0x0 DUP1 REVERT JUMPDEST POP PUSH1 0x40 MLOAD PUSH3 0x2455 CODESIZE SUB DUP1 PUSH3 0x2455 DUP4 CODECOPY DUP2 DUP2 ADD PUSH1 0x40 MSTORE DUP2 ADD SWAP1 PUSH3 0x37 SWAP2 SWAP1 PUSH3 0x284 JUMP JUMPDEST PUSH1 0x0 DUP3 MLOAD GT PUSH3 0x7E JUMPI PUSH1 0x40 MLOAD PUSH32 0x8C379A000000000000000000000000000000000000000000000000000000000 DUP2 MSTORE PUSH1 0x4 ADD PUSH3 0x75 SWAP1 PUSH3 0x390 JUMP JUMPDEST PUSH1 0x40 MLOAD DUP1 SWAP2 SUB SWAP1 REVERT JUMPDEST PUSH1 0x0 DUP2 MLOAD GT PUSH3 0xC5 JUMPI PUSH1 0x40 MLOAD PUSH32 0x8C379A000000000000000000000000000000000000000000000000000000000 DUP2 MSTORE PUSH1 0x4 ADD PUSH3 0xBC SWAP1 PUSH3 0x428 JUMP JUMPDEST PUSH1 0x40 MLOAD DUP1 SWAP2 SUB SWAP1 REVERT JUMPDEST DUP2 PUSH1 0x1 SWAP1 DUP2 PUSH3 0xD6 SWAP2 SWAP1 PUSH3 0x695 JUMP JUMPDEST POP DUP1 PUSH1 0x2 SWAP1 DUP2 PUSH3 0xE8 SWAP2 SWAP1 PUSH3 0x695 JUMP JUMPDEST POP POP POP PUSH3 0x77C JUMP JUMPDEST PUSH1 0x0 PUSH1 0x40 MLOAD SWAP1 POP SWAP1 JUMP JUMPDEST PUSH1 0x0 DUP1 REVERT JUMPDEST PUSH1 0x0 DUP1 REVERT JUMPDEST PUSH1 0x0 DUP1 REVERT JUMPDEST PUSH1 0x0 DUP1 REVERT JUMPDEST PUSH1 0x0 PUSH1 0x1F NOT PUSH1 0x1F DUP4 ADD AND SWAP1 POP SWAP2 SWAP1 POP JUMP JUMPDEST PUSH32 0x4E487B7100000000000000000000000000000000000000000000000000000000 PUSH1 0x0 MSTORE PUSH1 0x41 PUSH1 0x4 MSTORE PUSH1 0x24 PUSH1 0x0 REVERT JUMPDEST PUSH3 0x15A DUP3 PUSH3 0x10F JUMP JUMPDEST DUP2 ADD DUP2 DUP2 LT PUSH8 0xFFFFFFFFFFFFFFFF DUP3 GT OR ISZERO PUSH3 0x17C JUMPI PUSH3 0x17B PUSH3 0x120 JUMP JUMPDEST JUMPDEST DUP1 PUSH1 0x40 MSTORE POP POP POP JUMP JUMPDEST PUSH1 0x0 PUSH3 0x191 PUSH3 0xF1 JUMP JUMPDEST SWAP1 POP PUSH3 0x19F DUP3 DUP3 PUSH3 0x14F JUMP JUMPDEST SWAP2 SWAP1 POP JUMP JUMPDEST PUSH1 0x0 PUSH8 0xFFFFFFFFFFFFFFFF DUP3 GT ISZERO PUSH3 0x1C2 JUMPI PUSH3 0x1C1 PUSH3 0x120 JUMP JUMPDEST JUMPDEST PUSH3 0x1CD DUP3 PUSH3 0x10F JUMP JUMPDEST SWAP1 POP PUSH1 0x20 DUP2 ADD SWAP1 POP SWAP2 SWAP1 POP JUMP JUMPDEST PUSH1 0x0 JUMPDEST DUP4 DUP2 LT ISZERO PUSH3 0x1FA JUMPI DUP1 DUP3 ADD MLOAD DUP2 DUP5 ADD MSTORE PUSH1 0x20 DUP2 ADD SWAP1 POP PUSH3 0x1DD JUMP JUMPDEST PUSH1 0x0 DUP5 DUP5 ADD MSTORE POP POP POP POP JUMP JUMPDEST PUSH1 0x0 PUSH3 0x21D PUSH3 0x217 DUP5 PUSH3 0x1A4 JUMP JUMPDEST PUSH3 0x185 JUMP JUMPDEST SWAP1 POP DUP3 DUP2 MSTORE PUSH1 0x20 DUP2 ADD DUP5 DUP5 DUP5 ADD GT ISZERO PUSH3 0x23C JUMPI PUSH3 0x23B PUSH3 0x10A JUMP JUMPDEST JUMPDEST PUSH3 0x249 DUP5 DUP3 DUP6 PUSH3 0x1DA JUMP JUMPDEST POP SWAP4 SWAP3 POP POP POP JUMP JUMPDEST PUSH1 0x0 DUP3 PUSH1 0x1F DUP4 ADD SLT PUSH3 0x269 JUMPI PUSH3 0x268 PUSH3 0x105 JUMP JUMPDEST JUMPDEST DUP2 MLOAD PUSH3 0x27B DUP5 DUP3 PUSH1 0x20 DUP7 ADD PUSH3 0x206 JUMP JUMPDEST SWAP2 POP POP SWAP3 SWAP2 POP POP JUMP JUMPDEST PUSH1 0x0 DUP1 PUSH1 0x40 DUP4 DUP6 SUB SLT ISZERO PUSH3 0x29E JUMPI PUSH3 0x29D PUSH3 0xFB JUMP JUMPDEST JUMPDEST PUSH1 0x0 DUP4 ADD MLOAD PUSH8 0xFFFFFFFFFFFFFFFF DUP2 GT ISZERO PUSH3 0x2BF JUMPI PUSH3 0x2BE PUSH3 0x100 JUMP JUMPDEST JUMPDEST PUSH3 0x2CD DUP6 DUP3 DUP7 ADD PUSH3 0x251 JUMP JUMPDEST SWAP3 POP POP PUSH1 0x20 DUP4 ADD MLOAD PUSH8 0xFFFFFFFFFFFFFFFF DUP2 GT ISZERO PUSH3 0x2F1 JUMPI PUSH3 0x2F0 PUSH3 0x100 JUMP JUMPDEST JUMPDEST PUSH3 0x2FF DUP6 DUP3 DUP7 ADD PUSH3 0x251 JUMP JUMPDEST SWAP2 POP POP SWAP3 POP SWAP3 SWAP1 POP JUMP JUMPDEST PUSH1 0x0 DUP3 DUP3 MSTORE PUSH1 0x20 DUP3 ADD SWAP1 POP SWAP3 SWAP2 POP POP JUMP JUMPDEST PUSH32 0x4964656E7469666965722063616E6E6F7420626520656D70747520737472696E PUSH1 0x0 DUP3 ADD MSTORE PUSH32 0x672E000000000000000000000000000000000000000000000000000000000000 PUSH1 0x20 DUP3 ADD MSTORE POP JUMP JUMPDEST PUSH1 0x0 PUSH3 0x378 PUSH1 0x22 DUP4 PUSH3 0x309 JUMP JUMPDEST SWAP2 POP PUSH3 0x385 DUP3 PUSH3 0x31A JUMP JUMPDEST PUSH1 0x40 DUP3 ADD SWAP1 POP SWAP2 SWAP1 POP JUMP JUMPDEST PUSH1 0x0 PUSH1 0x20 DUP3 ADD SWAP1 POP DUP2 DUP2 SUB PUSH1 0x0 DUP4 ADD MSTORE PUSH3 0x3AB DUP2 PUSH3 0x369 JUMP JUMPDEST SWAP1 POP SWAP2 SWAP1 POP JUMP JUMPDEST PUSH32 0x5075626C69634B65792063616E6E6F74206265206F66206C656E677468207A65 PUSH1 0x0 DUP3 ADD MSTORE PUSH32 0x726F2E0000000000000000000000000000000000000000000000000000000000 PUSH1 0x20 DUP3 ADD MSTORE POP JUMP JUMPDEST PUSH1 0x0 PUSH3 0x410 PUSH1 0x23 DUP4 PUSH3 0x309 JUMP JUMPDEST SWAP2 POP PUSH3 0x41D DUP3 PUSH3 0x3B2 JUMP JUMPDEST PUSH1 0x40 DUP3 ADD SWAP1 POP SWAP2 SWAP1 POP JUMP JUMPDEST PUSH1 0x0 PUSH1 0x20 DUP3 ADD SWAP1 POP DUP2 DUP2 SUB PUSH1 0x0 DUP4 ADD MSTORE PUSH3 0x443 DUP2 PUSH3 0x401 JUMP JUMPDEST SWAP1 POP SWAP2 SWAP1 POP JUMP JUMPDEST PUSH1 0x0 DUP2 MLOAD SWAP1 POP SWAP2 SWAP1 POP JUMP JUMPDEST PUSH32 0x4E487B7100000000000000000000000000000000000000000000000000000000 PUSH1 0x0 MSTORE PUSH1 0x22 PUSH1 0x4 MSTORE PUSH1 0x24 PUSH1 0x0 REVERT JUMPDEST PUSH1 0x0 PUSH1 0x2 DUP3 DIV SWAP1 POP PUSH1 0x1 DUP3 AND DUP1 PUSH3 0x49D JUMPI PUSH1 0x7F DUP3 AND SWAP2 POP JUMPDEST PUSH1 0x20 DUP3 LT DUP2 SUB PUSH3 0x4B3 JUMPI PUSH3 0x4B2 PUSH3 0x455 JUMP JUMPDEST JUMPDEST POP SWAP2 SWAP1 POP JUMP JUMPDEST PUSH1 0x0 DUP2 SWAP1 POP DUP2 PUSH1 0x0 MSTORE PUSH1 0x20 PUSH1 0x0 KECCAK256 SWAP1 POP SWAP2 SWAP1 POP JUMP JUMPDEST PUSH1 0x0 PUSH1 0x20 PUSH1 0x1F DUP4 ADD DIV SWAP1 POP SWAP2 SWAP1 POP JUMP JUMPDEST PUSH1 0x0 DUP3 DUP3 SHL SWAP1 POP SWAP3 SWAP2 POP POP JUMP JUMPDEST PUSH1 0x0 PUSH1 0x8 DUP4 MUL PUSH3 0x51D PUSH32 0xFFFFFFFFFFFFFFFFFFFFFFFFFFFFFFFFFFFFFFFFFFFFFFFFFFFFFFFFFFFFFFFF DUP3 PUSH3 0x4DE JUMP JUMPDEST PUSH3 0x529 DUP7 DUP4 PUSH3 0x4DE JUMP JUMPDEST SWAP6 POP DUP1 NOT DUP5 AND SWAP4 POP DUP1 DUP7 AND DUP5 OR SWAP3 POP POP POP SWAP4 SWAP3 POP POP POP JUMP JUMPDEST PUSH1 0x0 DUP2 SWAP1 POP SWAP2 SWAP1 POP JUMP JUMPDEST PUSH1 0x0 DUP2 SWAP1 POP SWAP2 SWAP1 POP JUMP JUMPDEST PUSH1 0x0 PUSH3 0x576 PUSH3 0x570 PUSH3 0x56A DUP5 PUSH3 0x541 JUMP JUMPDEST PUSH3 0x54B JUMP JUMPDEST PUSH3 0x541 JUMP JUMPDEST SWAP1 POP SWAP2 SWAP1 POP JUMP JUMPDEST PUSH1 0x0 DUP2 SWAP1 POP SWAP2 SWAP1 POP JUMP JUMPDEST PUSH3 0x592 DUP4 PUSH3 0x555 JUMP JUMPDEST PUSH3 0x5AA PUSH3 0x5A1 DUP3 PUSH3 0x57D JUMP JUMPDEST DUP5 DUP5 SLOAD PUSH3 0x4EB JUMP JUMPDEST DUP3 SSTORE POP POP POP POP JUMP JUMPDEST PUSH1 0x0 SWAP1 JUMP JUMPDEST PUSH3 0x5C1 PUSH3 0x5B2 JUMP JUMPDEST PUSH3 0x5CE DUP2 DUP5 DUP5 PUSH3 0x587 JUMP JUMPDEST POP POP POP JUMP JUMPDEST JUMPDEST DUP2 DUP2 LT ISZERO PUSH3 0x5F6 JUMPI PUSH3 0x5EA PUSH1 0x0 DUP3 PUSH3 0x5B7 JUMP JUMPDEST PUSH1 0x1 DUP2 ADD SWAP1 POP PUSH3 0x5D4 JUMP JUMPDEST POP POP JUMP JUMPDEST PUSH1 0x1F DUP3 GT ISZERO PUSH3 0x645 JUMPI PUSH3 0x60F DUP2 PUSH3 0x4B9 JUMP JUMPDEST PUSH3 0x61A DUP5 PUSH3 0x4CE JUMP JUMPDEST DUP2 ADD PUSH1 0x20 DUP6 LT ISZERO PUSH3 0x62A JUMPI DUP2 SWAP1 POP JUMPDEST PUSH3 0x642 PUSH3 0x639 DUP6 PUSH3 0x4CE JUMP JUMPDEST DUP4 ADD DUP3 PUSH3 0x5D3 JUMP JUMPDEST POP POP JUMPDEST POP POP POP JUMP JUMPDEST PUSH1 0x0 DUP3 DUP3 SHR SWAP1 POP SWAP3 SWAP2 POP POP JUMP JUMPDEST PUSH1 0x0 PUSH3 0x66A PUSH1 0x0 NOT DUP5 PUSH1 0x8 MUL PUSH3 0x64A JUMP JUMPDEST NOT DUP1 DUP4 AND SWAP2 POP POP SWAP3 SWAP2 POP POP JUMP JUMPDEST PUSH1 0x0 PUSH3 0x685 DUP4 DUP4 PUSH3 0x657 JUMP JUMPDEST SWAP2 POP DUP3 PUSH1 0x2 MUL DUP3 OR SWAP1 POP SWAP3 SWAP2 POP POP JUMP JUMPDEST PUSH3 0x6A0 DUP3 PUSH3 0x44A JUMP JUMPDEST PUSH8 0xFFFFFFFFFFFFFFFF DUP2 GT ISZERO PUSH3 0x6BC JUMPI PUSH3 0x6BB PUSH3 0x120 JUMP JUMPDEST JUMPDEST PUSH3 0x6C8 DUP3 SLOAD PUSH3 0x484 JUMP JUMPDEST PUSH3 0x6D5 DUP3 DUP3 DUP6 PUSH3 0x5FA JUMP JUMPDEST PUSH1 0x0 PUSH1 0x20 SWAP1 POP PUSH1 0x1F DUP4 GT PUSH1 0x1 DUP2 EQ PUSH3 0x70D JUMPI PUSH1 0x0 DUP5 ISZERO PUSH3 0x6F8 JUMPI DUP3 DUP8 ADD MLOAD SWAP1 POP JUMPDEST PUSH3 0x704 DUP6 DUP3 PUSH3 0x677 JUMP JUMPDEST DUP7 SSTORE POP PUSH3 0x774 JUMP JUMPDEST PUSH1 0x1F NOT DUP5 AND PUSH3 0x71D DUP7 PUSH3 0x4B9 JUMP JUMPDEST PUSH1 0x0 JUMPDEST DUP3 DUP2 LT ISZERO PUSH3 0x747 JUMPI DUP5 DUP10 ADD MLOAD DUP3 SSTORE PUSH1 0x1 DUP3 ADD SWAP2 POP PUSH1 0x20 DUP6 ADD SWAP5 POP PUSH1 0x20 DUP2 ADD SWAP1 POP PUSH3 0x720 JUMP JUMPDEST DUP7 DUP4 LT ISZERO PUSH3 0x767 JUMPI DUP5 DUP10 ADD MLOAD PUSH3 0x763 PUSH1 0x1F DUP10 AND DUP3 PUSH3 0x657 JUMP JUMPDEST DUP4 SSTORE POP JUMPDEST PUSH1 0x1 PUSH1 0x2 DUP9 MUL ADD DUP9 SSTORE POP POP POP JUMPDEST POP POP POP POP POP POP JUMP JUMPDEST PUSH2 0x1CC9 DUP1 PUSH3 0x78C PUSH1 0x0 CODECOPY PUSH1 0x0 RETURN INVALID PUSH1 0x80 PUSH1 0x40 MSTORE CALLVALUE DUP1 ISZERO PUSH3 0x11 JUMPI PUSH1 0x0 DUP1 REVERT JUMPDEST POP PUSH1 0x4 CALLDATASIZE LT PUSH3 0x52 JUMPI PUSH1 0x0 CALLDATALOAD PUSH1 0xE0 SHR DUP1 PUSH4 0x63FFAB31 EQ PUSH3 0x57 JUMPI DUP1 PUSH4 0x7998A1C4 EQ PUSH3 0x79 JUMPI DUP1 PUSH4 0x8DA5CB5B EQ PUSH3 0x9B JUMPI DUP1 PUSH4 0xDFAE7D25 EQ PUSH3 0xBD JUMPI JUMPDEST PUSH1 0x0 DUP1 REVERT JUMPDEST PUSH3 0x61 PUSH3 0xF3 JUMP JUMPDEST PUSH1 0x40 MLOAD PUSH3 0x70 SWAP2 SWAP1 PUSH3 0x338 JUMP JUMPDEST PUSH1 0x40 MLOAD DUP1 SWAP2 SUB SWAP1 RETURN JUMPDEST PUSH3 0x83 PUSH3 0x189 JUMP JUMPDEST PUSH1 0x40 MLOAD PUSH3 0x92 SWAP2 SWAP1 PUSH3 0x338 JUMP JUMPDEST PUSH1 0x40 MLOAD DUP1 SWAP2 SUB SWAP1 RETURN JUMPDEST PUSH3 0xA5 PUSH3 0x21F JUMP JUMPDEST PUSH1 0x40 MLOAD PUSH3 0xB4 SWAP2 SWAP1 PUSH3 0x3A1 JUMP JUMPDEST PUSH1 0x40 MLOAD DUP1 SWAP2 SUB SWAP1 RETURN JUMPDEST PUSH3 0xDB PUSH1 0x4 DUP1 CALLDATASIZE SUB DUP2 ADD SWAP1 PUSH3 0xD5 SWAP2 SWAP1 PUSH3 0x436 JUMP JUMPDEST PUSH3 0x243 JUMP JUMPDEST PUSH1 0x40 MLOAD PUSH3 0xEA SWAP2 SWAP1 PUSH3 0x52F JUMP JUMPDEST PUSH1 0x40 MLOAD DUP1 SWAP2 SUB SWAP1 RETURN JUMPDEST PUSH1 0x2 DUP1 SLOAD PUSH3 0x102 SWAP1 PUSH3 0x57B JUMP JUMPDEST DUP1 PUSH1 0x1F ADD PUSH1 0x20 DUP1 SWAP2 DIV MUL PUSH1 0x20 ADD PUSH1 0x40 MLOAD SWAP1 DUP2 ADD PUSH1 0x40 MSTORE DUP1 SWAP3 SWAP2 SWAP1 DUP2 DUP2 MSTORE PUSH1 0x20 ADD DUP3 DUP1 SLOAD PUSH3 0x130 SWAP1 PUSH3 0x57B JUMP JUMPDEST DUP1 ISZERO PUSH3 0x181 JUMPI DUP1 PUSH1 0x1F LT PUSH3 0x155 JUMPI PUSH2 0x100 DUP1 DUP4 SLOAD DIV MUL DUP4 MSTORE SWAP2 PUSH1 0x20 ADD SWAP2 PUSH3 0x181 JUMP JUMPDEST DUP3 ADD SWAP2 SWAP1 PUSH1 0x0 MSTORE PUSH1 0x20 PUSH1 0x0 KECCAK256 SWAP1 JUMPDEST DUP2 SLOAD DUP2 MSTORE SWAP1 PUSH1 0x1 ADD SWAP1 PUSH1 0x20 ADD DUP1 DUP4 GT PUSH3 0x163 JUMPI DUP3 SWAP1 SUB PUSH1 0x1F AND DUP3 ADD SWAP2 JUMPDEST POP POP POP POP POP DUP2 JUMP JUMPDEST PUSH1 0x1 DUP1 SLOAD PUSH3 0x198 SWAP1 PUSH3 0x57B JUMP JUMPDEST DUP1 PUSH1 0x1F ADD PUSH1 0x20 DUP1 SWAP2 DIV MUL PUSH1 0x20 ADD PUSH1 0x40 MLOAD SWAP1 DUP2 ADD PUSH1 0x40 MSTORE DUP1 SWAP3 SWAP2 SWAP1 DUP2 DUP2 MSTORE PUSH1 0x20 ADD DUP3 DUP1 SLOAD PUSH3 0x1C6 SWAP1 PUSH3 0x57B JUMP JUMPDEST DUP1 ISZERO PUSH3 0x217 JUMPI DUP1 PUSH1 0x1F LT PUSH3 0x1EB JUMPI PUSH2 0x100 DUP1 DUP4 SLOAD DIV MUL DUP4 MSTORE SWAP2 PUSH1 0x20 ADD SWAP2 PUSH3 0x217 JUMP JUMPDEST DUP3 ADD SWAP2 SWAP1 PUSH1 0x0 MSTORE PUSH1 0x20 PUSH1 0x0 KECCAK256 SWAP1 JUMPDEST DUP2 SLOAD DUP2 MSTORE SWAP1 PUSH1 0x1 ADD SWAP1 PUSH1 0x20 ADD DUP1 DUP4 GT PUSH3 0x1F9 JUMPI DUP3 SWAP1 SUB PUSH1 0x1F AND DUP3 ADD SWAP2 JUMPDEST POP POP POP POP POP DUP2 JUMP JUMPDEST PUSH1 0x0 DUP1 SLOAD SWAP1 PUSH2 0x100 EXP SWAP1 DIV PUSH20 0xFFFFFFFFFFFFFFFFFFFFFFFFFFFFFFFFFFFFFFFF AND DUP2 JUMP JUMPDEST PUSH1 0x0 DUP5 DUP5 DUP5 DUP5 ADDRESS PUSH1 0x40 MLOAD PUSH3 0x258 SWAP1 PUSH3 0x290 JUMP JUMPDEST PUSH3 0x268 SWAP6 SWAP5 SWAP4 SWAP3 SWAP2 SWAP1 PUSH3 0x617 JUMP JUMPDEST PUSH1 0x40 MLOAD DUP1 SWAP2 SUB SWAP1 PUSH1 0x0 CREATE DUP1 ISZERO DUP1 ISZERO PUSH3 0x285 JUMPI RETURNDATASIZE PUSH1 0x0 DUP1 RETURNDATACOPY RETURNDATASIZE PUSH1 0x0 REVERT JUMPDEST POP SWAP1 POP SWAP5 SWAP4 POP POP POP POP JUMP JUMPDEST PUSH2 0x162D DUP1 PUSH3 0x667 DUP4 CODECOPY ADD SWAP1 JUMP JUMPDEST PUSH1 0x0 DUP2 MLOAD SWAP1 POP SWAP2 SWAP1 POP JUMP JUMPDEST PUSH1 0x0 DUP3 DUP3 MSTORE PUSH1 0x20 DUP3 ADD SWAP1 POP SWAP3 SWAP2 POP POP JUMP JUMPDEST PUSH1 0x0 JUMPDEST DUP4 DUP2 LT ISZERO PUSH3 0x2DA JUMPI DUP1 DUP3 ADD MLOAD DUP2 DUP5 ADD MSTORE PUSH1 0x20 DUP2 ADD SWAP1 POP PUSH3 0x2BD JUMP JUMPDEST PUSH1 0x0 DUP5 DUP5 ADD MSTORE POP POP POP POP JUMP JUMPDEST PUSH1 0x0 PUSH1 0x1F NOT PUSH1 0x1F DUP4 ADD AND SWAP1 POP SWAP2 SWAP1 POP JUMP JUMPDEST PUSH1 0x0 PUSH3 0x304 DUP3 PUSH3 0x29E JUMP JUMPDEST PUSH3 0x310 DUP2 DUP6 PUSH3 0x2A9 JUMP JUMPDEST SWAP4 POP PUSH3 0x322 DUP2 DUP6 PUSH1 0x20 DUP7 ADD PUSH3 0x2BA JUMP JUMPDEST PUSH3 0x32D DUP2 PUSH3 0x2E6 JUMP JUMPDEST DUP5 ADD SWAP2 POP POP SWAP3 SWAP2 POP POP JUMP JUMPDEST PUSH1 0x0 PUSH1 0x20 DUP3 ADD SWAP1 POP DUP2 DUP2 SUB PUSH1 0x0 DUP4 ADD MSTORE PUSH3 0x354 DUP2 DUP5 PUSH3 0x2F7 JUMP JUMPDEST SWAP1 POP SWAP3 SWAP2 POP POP JUMP JUMPDEST PUSH1 0x0 PUSH20 0xFFFFFFFFFFFFFFFFFFFFFFFFFFFFFFFFFFFFFFFF DUP3 AND SWAP1 POP SWAP2 SWAP1 POP JUMP JUMPDEST PUSH1 0x0 PUSH3 0x389 DUP3 PUSH3 0x35C JUMP JUMPDEST SWAP1 POP SWAP2 SWAP1 POP JUMP JUMPDEST PUSH3 0x39B DUP2 PUSH3 0x37C JUMP JUMPDEST DUP3 MSTORE POP POP JUMP JUMPDEST PUSH1 0x0 PUSH1 0x20 DUP3 ADD SWAP1 POP PUSH3 0x3B8 PUSH1 0x0 DUP4 ADD DUP5 PUSH3 0x390 JUMP JUMPDEST SWAP3 SWAP2 POP POP JUMP JUMPDEST PUSH1 0x0 DUP1 REVERT JUMPDEST PUSH1 0x0 DUP1 REVERT JUMPDEST PUSH1 0x0 DUP1 REVERT JUMPDEST PUSH1 0x0 DUP1 REVERT JUMPDEST PUSH1 0x0 DUP1 REVERT JUMPDEST PUSH1 0x0 DUP1 DUP4 PUSH1 0x1F DUP5 ADD SLT PUSH3 0x3F0 JUMPI PUSH3 0x3EF PUSH3 0x3C8 JUMP JUMPDEST JUMPDEST DUP3 CALLDATALOAD SWAP1 POP PUSH8 0xFFFFFFFFFFFFFFFF DUP2 GT ISZERO PUSH3 0x410 JUMPI PUSH3 0x40F PUSH3 0x3CD JUMP JUMPDEST JUMPDEST PUSH1 0x20 DUP4 ADD SWAP2 POP DUP4 PUSH1 0x1 DUP3 MUL DUP4 ADD GT ISZERO PUSH3 0x42F JUMPI PUSH3 0x42E PUSH3 0x3D2 JUMP JUMPDEST JUMPDEST SWAP3 POP SWAP3 SWAP1 POP JUMP JUMPDEST PUSH1 0x0 DUP1 PUSH1 0x0 DUP1 PUSH1 0x40 DUP6 DUP8 SUB SLT ISZERO PUSH3 0x453 JUMPI PUSH3 0x452 PUSH3 0x3BE JUMP JUMPDEST JUMPDEST PUSH1 0x0 DUP6 ADD CALLDATALOAD PUSH8 0xFFFFFFFFFFFFFFFF DUP2 GT ISZERO PUSH3 0x474 JUMPI PUSH3 0x473 PUSH3 0x3C3 JUMP JUMPDEST JUMPDEST PUSH3 0x482 DUP8 DUP3 DUP9 ADD PUSH3 0x3D7 JUMP JUMPDEST SWAP5 POP SWAP5 POP POP PUSH1 0x20 DUP6 ADD CALLDATALOAD PUSH8 0xFFFFFFFFFFFFFFFF DUP2 GT ISZERO PUSH3 0x4A8 JUMPI PUSH3 0x4A7 PUSH3 0x3C3 JUMP JUMPDEST JUMPDEST PUSH3 0x4B6 DUP8 DUP3 DUP9 ADD PUSH3 0x3D7 JUMP JUMPDEST SWAP3 POP SWAP3 POP POP SWAP3 SWAP6 SWAP2 SWAP5 POP SWAP3 POP JUMP JUMPDEST PUSH1 0x0 DUP2 SWAP1 POP SWAP2 SWAP1 POP JUMP JUMPDEST PUSH1 0x0 PUSH3 0x4EF PUSH3 0x4E9 PUSH3 0x4E3 DUP5 PUSH3 0x35C JUMP JUMPDEST PUSH3 0x4C4 JUMP JUMPDEST PUSH3 0x35C JUMP JUMPDEST SWAP1 POP SWAP2 SWAP1 POP JUMP JUMPDEST PUSH1 0x0 PUSH3 0x503 DUP3 PUSH3 0x4CE JUMP JUMPDEST SWAP1 POP SWAP2 SWAP1 POP JUMP JUMPDEST PUSH1 0x0 PUSH3 0x517 DUP3 PUSH3 0x4F6 JUMP JUMPDEST SWAP1 POP SWAP2 SWAP1 POP JUMP JUMPDEST PUSH3 0x529 DUP2 PUSH3 0x50A JUMP JUMPDEST DUP3 MSTORE POP POP JUMP JUMPDEST PUSH1 0x0 PUSH1 0x20 DUP3 ADD SWAP1 POP PUSH3 0x546 PUSH1 0x0 DUP4 ADD DUP5 PUSH3 0x51E JUMP JUMPDEST SWAP3 SWAP2 POP POP JUMP JUMPDEST PUSH32 0x4E487B7100000000000000000000000000000000000000000000000000000000 PUSH1 0x0 MSTORE PUSH1 0x22 PUSH1 0x4 MSTORE PUSH1 0x24 PUSH1 0x0 REVERT JUMPDEST PUSH1 0x0 PUSH1 0x2 DUP3 DIV SWAP1 POP PUSH1 0x1 DUP3 AND DUP1 PUSH3 0x594 JUMPI PUSH1 0x7F DUP3 AND SWAP2 POP JUMPDEST PUSH1 0x20 DUP3 LT DUP2 SUB PUSH3 0x5AA JUMPI PUSH3 0x5A9 PUSH3 0x54C JUMP JUMPDEST JUMPDEST POP SWAP2 SWAP1 POP JUMP JUMPDEST DUP3 DUP2 DUP4 CALLDATACOPY PUSH1 0x0 DUP4 DUP4 ADD MSTORE POP POP POP JUMP JUMPDEST PUSH1 0x0 PUSH3 0x5CD DUP4 DUP6 PUSH3 0x2A9 JUMP JUMPDEST SWAP4 POP PUSH3 0x5DC DUP4 DUP6 DUP5 PUSH3 0x5B0 JUMP JUMPDEST PUSH3 0x5E7 DUP4 PUSH3 0x2E6 JUMP JUMPDEST DUP5 ADD SWAP1 POP SWAP4 SWAP3 POP POP POP JUMP JUMPDEST PUSH1 0x0 PUSH3 0x5FF DUP3 PUSH3 0x4F6 JUMP JUMPDEST SWAP1 POP SWAP2 SWAP1 POP JUMP JUMPDEST PUSH3 0x611 DUP2 PUSH3 0x5F2 JUMP JUMPDEST DUP3 MSTORE POP POP JUMP JUMPDEST PUSH1 0x0 PUSH1 0x60 DUP3 ADD SWAP1 POP DUP2 DUP2 SUB PUSH1 0x0 DUP4 ADD MSTORE PUSH3 0x634 DUP2 DUP8 DUP10 PUSH3 0x5BF JUMP JUMPDEST SWAP1 POP DUP2 DUP2 SUB PUSH1 0x20 DUP4 ADD MSTORE PUSH3 0x64B DUP2 DUP6 DUP8 PUSH3 0x5BF JUMP JUMPDEST SWAP1 POP PUSH3 0x65C PUSH1 0x40 DUP4 ADD DUP5 PUSH3 0x606 JUMP JUMPDEST SWAP7 SWAP6 POP POP POP POP POP POP JUMP INVALID PUSH1 0x80 PUSH1 0x40 MSTORE CALLVALUE DUP1 ISZERO PUSH3 0x11 JUMPI PUSH1 0x0 DUP1 REVERT JUMPDEST POP PUSH1 0x40 MLOAD PUSH3 0x162D CODESIZE SUB DUP1 PUSH3 0x162D DUP4 CODECOPY DUP2 DUP2 ADD PUSH1 0x40 MSTORE DUP2 ADD SWAP1 PUSH3 0x37 SWAP2 SWAP1 PUSH3 0x2F8 JUMP JUMPDEST PUSH1 0x0 DUP4 MLOAD GT PUSH3 0x7E JUMPI PUSH1 0x40 MLOAD PUSH32 0x8C379A000000000000000000000000000000000000000000000000000000000 DUP2 MSTORE PUSH1 0x4 ADD PUSH3 0x75 SWAP1 PUSH3 0x419 JUMP JUMPDEST PUSH1 0x40 MLOAD DUP1 SWAP2 SUB SWAP1 REVERT JUMPDEST DUP3 PUSH1 0x0 SWAP1 DUP2 PUSH3 0x8F SWAP2 SWAP1 PUSH3 0x686 JUMP JUMPDEST POP DUP1 PUSH1 0x2 PUSH1 0x0 PUSH2 0x100 EXP DUP2 SLOAD DUP2 PUSH20 0xFFFFFFFFFFFFFFFFFFFFFFFFFFFFFFFFFFFFFFFF MUL NOT AND SWAP1 DUP4 PUSH20 0xFFFFFFFFFFFFFFFFFFFFFFFFFFFFFFFFFFFFFFFF AND MUL OR SWAP1 SSTORE POP DUP2 PUSH1 0x1 SWAP1 DUP2 PUSH3 0xE2 SWAP2 SWAP1 PUSH3 0x686 JUMP JUMPDEST POP POP POP POP PUSH3 0x76D JUMP JUMPDEST PUSH1 0x0 PUSH1 0x40 MLOAD SWAP1 POP SWAP1 JUMP JUMPDEST PUSH1 0x0 DUP1 REVERT JUMPDEST PUSH1 0x0 DUP1 REVERT JUMPDEST PUSH1 0x0 DUP1 REVERT JUMPDEST PUSH1 0x0 DUP1 REVERT JUMPDEST PUSH1 0x0 PUSH1 0x1F NOT PUSH1 0x1F DUP4 ADD AND SWAP1 POP SWAP2 SWAP1 POP JUMP JUMPDEST PUSH32 0x4E487B7100000000000000000000000000000000000000000000000000000000 PUSH1 0x0 MSTORE PUSH1 0x41 PUSH1 0x4 MSTORE PUSH1 0x24 PUSH1 0x0 REVERT JUMPDEST PUSH3 0x155 DUP3 PUSH3 0x10A JUMP JUMPDEST DUP2 ADD DUP2 DUP2 LT PUSH8 0xFFFFFFFFFFFFFFFF DUP3 GT OR ISZERO PUSH3 0x177 JUMPI PUSH3 0x176 PUSH3 0x11B JUMP JUMPDEST JUMPDEST DUP1 PUSH1 0x40 MSTORE POP POP POP JUMP JUMPDEST PUSH1 0x0 PUSH3 0x18C PUSH3 0xEC JUMP JUMPDEST SWAP1 POP PUSH3 0x19A DUP3 DUP3 PUSH3 0x14A JUMP JUMPDEST SWAP2 SWAP1 POP JUMP JUMPDEST PUSH1 0x0 PUSH8 0xFFFFFFFFFFFFFFFF DUP3 GT ISZERO PUSH3 0x1BD JUMPI PUSH3 0x1BC PUSH3 0x11B JUMP JUMPDEST JUMPDEST PUSH3 0x1C8 DUP3 PUSH3 0x10A JUMP JUMPDEST SWAP1 POP PUSH1 0x20 DUP2 ADD SWAP1 POP SWAP2 SWAP1 POP JUMP JUMPDEST PUSH1 0x0 JUMPDEST DUP4 DUP2 LT ISZERO PUSH3 0x1F5 JUMPI DUP1 DUP3 ADD MLOAD DUP2 DUP5 ADD MSTORE PUSH1 0x20 DUP2 ADD SWAP1 POP PUSH3 0x1D8 JUMP JUMPDEST PUSH1 0x0 DUP5 DUP5 ADD MSTORE POP POP POP POP JUMP JUMPDEST PUSH1 0x0 PUSH3 0x218 PUSH3 0x212 DUP5 PUSH3 0x19F JUMP JUMPDEST PUSH3 0x180 JUMP JUMPDEST SWAP1 POP DUP3 DUP2 MSTORE PUSH1 0x20 DUP2 ADD DUP5 DUP5 DUP5 ADD GT ISZERO PUSH3 0x237 JUMPI PUSH3 0x236 PUSH3 0x105 JUMP JUMPDEST JUMPDEST PUSH3 0x244 DUP5 DUP3 DUP6 PUSH3 0x1D5 JUMP JUMPDEST POP SWAP4 SWAP3 POP POP POP JUMP JUMPDEST PUSH1 0x0 DUP3 PUSH1 0x1F DUP4 ADD SLT PUSH3 0x264 JUMPI PUSH3 0x263 PUSH3 0x100 JUMP JUMPDEST JUMPDEST DUP2 MLOAD PUSH3 0x276 DUP5 DUP3 PUSH1 0x20 DUP7 ADD PUSH3 0x201 JUMP JUMPDEST SWAP2 POP POP SWAP3 SWAP2 POP POP JUMP JUMPDEST PUSH1 0x0 PUSH20 0xFFFFFFFFFFFFFFFFFFFFFFFFFFFFFFFFFFFFFFFF DUP3 AND SWAP1 POP SWAP2 SWAP1 POP JUMP JUMPDEST PUSH1 0x0 PUSH3 0x2AC DUP3 PUSH3 0x27F JUMP JUMPDEST SWAP1 POP SWAP2 SWAP1 POP JUMP JUMPDEST PUSH1 0x0 PUSH3 0x2C0 DUP3 PUSH3 0x29F JUMP JUMPDEST SWAP1 POP SWAP2 SWAP1 POP JUMP JUMPDEST PUSH3 0x2D2 DUP2 PUSH3 0x2B3 JUMP JUMPDEST DUP2 EQ PUSH3 0x2DE JUMPI PUSH1 0x0 DUP1 REVERT JUMPDEST POP JUMP JUMPDEST PUSH1 0x0 DUP2 MLOAD SWAP1 POP PUSH3 0x2F2 DUP2 PUSH3 0x2C7 JUMP JUMPDEST SWAP3 SWAP2 POP POP JUMP JUMPDEST PUSH1 0x0 DUP1 PUSH1 0x0 PUSH1 0x60 DUP5 DUP7 SUB SLT ISZERO PUSH3 0x314 JUMPI PUSH3 0x313 PUSH3 0xF6 JUMP JUMPDEST JUMPDEST PUSH1 0x0 DUP5 ADD MLOAD PUSH8 0xFFFFFFFFFFFFFFFF DUP2 GT ISZERO PUSH3 0x335 JUMPI PUSH3 0x334 PUSH3 0xFB JUMP JUMPDEST JUMPDEST PUSH3 0x343 DUP7 DUP3 DUP8 ADD PUSH3 0x24C JUMP JUMPDEST SWAP4 POP POP PUSH1 0x20 DUP5 ADD MLOAD PUSH8 0xFFFFFFFFFFFFFFFF DUP2 GT ISZERO PUSH3 0x367 JUMPI PUSH3 0x366 PUSH3 0xFB JUMP JUMPDEST JUMPDEST PUSH3 0x375 DUP7 DUP3 DUP8 ADD PUSH3 0x24C JUMP JUMPDEST SWAP3 POP POP PUSH1 0x40 PUSH3 0x388 DUP7 DUP3 DUP8 ADD PUSH3 0x2E1 JUMP JUMPDEST SWAP2 POP POP SWAP3 POP SWAP3 POP SWAP3 JUMP JUMPDEST PUSH1 0x0 DUP3 DUP3 MSTORE PUSH1 0x20 DUP3 ADD SWAP1 POP SWAP3 SWAP2 POP POP JUMP JUMPDEST PUSH32 0x4964656E7469666965722063616E6E6F7420626520656D70747520737472696E PUSH1 0x0 DUP3 ADD MSTORE PUSH32 0x672E000000000000000000000000000000000000000000000000000000000000 PUSH1 0x20 DUP3 ADD MSTORE POP JUMP JUMPDEST PUSH1 0x0 PUSH3 0x401 PUSH1 0x22 DUP4 PUSH3 0x392 JUMP JUMPDEST SWAP2 POP PUSH3 0x40E DUP3 PUSH3 0x3A3 JUMP JUMPDEST PUSH1 0x40 DUP3 ADD SWAP1 POP SWAP2 SWAP1 POP JUMP JUMPDEST PUSH1 0x0 PUSH1 0x20 DUP3 ADD SWAP1 POP DUP2 DUP2 SUB PUSH1 0x0 DUP4 ADD MSTORE PUSH3 0x434 DUP2 PUSH3 0x3F2 JUMP JUMPDEST SWAP1 POP SWAP2 SWAP1 POP JUMP JUMPDEST PUSH1 0x0 DUP2 MLOAD SWAP1 POP SWAP2 SWAP1 POP JUMP JUMPDEST PUSH32 0x4E487B7100000000000000000000000000000000000000000000000000000000 PUSH1 0x0 MSTORE PUSH1 0x22 PUSH1 0x4 MSTORE PUSH1 0x24 PUSH1 0x0 REVERT JUMPDEST PUSH1 0x0 PUSH1 0x2 DUP3 DIV SWAP1 POP PUSH1 0x1 DUP3 AND DUP1 PUSH3 0x48E JUMPI PUSH1 0x7F DUP3 AND SWAP2 POP JUMPDEST PUSH1 0x20 DUP3 LT DUP2 SUB PUSH3 0x4A4 JUMPI PUSH3 0x4A3 PUSH3 0x446 JUMP JUMPDEST JUMPDEST POP SWAP2 SWAP1 POP JUMP JUMPDEST PUSH1 0x0 DUP2 SWAP1 POP DUP2 PUSH1 0x0 MSTORE PUSH1 0x20 PUSH1 0x0 KECCAK256 SWAP1 POP SWAP2 SWAP1 POP JUMP JUMPDEST PUSH1 0x0 PUSH1 0x20 PUSH1 0x1F DUP4 ADD DIV SWAP1 POP SWAP2 SWAP1 POP JUMP JUMPDEST PUSH1 0x0 DUP3 DUP3 SHL SWAP1 POP SWAP3 SWAP2 POP POP JUMP JUMPDEST PUSH1 0x0 PUSH1 0x8 DUP4 MUL PUSH3 0x50E PUSH32 0xFFFFFFFFFFFFFFFFFFFFFFFFFFFFFFFFFFFFFFFFFFFFFFFFFFFFFFFFFFFFFFFF DUP3 PUSH3 0x4CF JUMP JUMPDEST PUSH3 0x51A DUP7 DUP4 PUSH3 0x4CF JUMP JUMPDEST SWAP6 POP DUP1 NOT DUP5 AND SWAP4 POP DUP1 DUP7 AND DUP5 OR SWAP3 POP POP POP SWAP4 SWAP3 POP POP POP JUMP JUMPDEST PUSH1 0x0 DUP2 SWAP1 POP SWAP2 SWAP1 POP JUMP JUMPDEST PUSH1 0x0 DUP2 SWAP1 POP SWAP2 SWAP1 POP JUMP JUMPDEST PUSH1 0x0 PUSH3 0x567 PUSH3 0x561 PUSH3 0x55B DUP5 PUSH3 0x532 JUMP JUMPDEST PUSH3 0x53C JUMP JUMPDEST PUSH3 0x532 JUMP JUMPDEST SWAP1 POP SWAP2 SWAP1 POP JUMP JUMPDEST PUSH1 0x0 DUP2 SWAP1 POP SWAP2 SWAP1 POP JUMP JUMPDEST PUSH3 0x583 DUP4 PUSH3 0x546 JUMP JUMPDEST PUSH3 0x59B PUSH3 0x592 DUP3 PUSH3 0x56E JUMP JUMPDEST DUP5 DUP5 SLOAD PUSH3 0x4DC JUMP JUMPDEST DUP3 SSTORE POP POP POP POP JUMP JUMPDEST PUSH1 0x0 SWAP1 JUMP JUMPDEST PUSH3 0x5B2 PUSH3 0x5A3 JUMP JUMPDEST PUSH3 0x5BF DUP2 DUP5 DUP5 PUSH3 0x578 JUMP JUMPDEST POP POP POP JUMP JUMPDEST JUMPDEST DUP2 DUP2 LT ISZERO PUSH3 0x5E7 JUMPI PUSH3 0x5DB PUSH1 0x0 DUP3 PUSH3 0x5A8 JUMP JUMPDEST PUSH1 0x1 DUP2 ADD SWAP1 POP PUSH3 0x5C5 JUMP JUMPDEST POP POP JUMP JUMPDEST PUSH1 0x1F DUP3 GT ISZERO PUSH3 0x636 JUMPI PUSH3 0x600 DUP2 PUSH3 0x4AA JUMP JUMPDEST PUSH3 0x60B DUP5 PUSH3 0x4BF JUMP JUMPDEST DUP2 ADD PUSH1 0x20 DUP6 LT ISZERO PUSH3 0x61B JUMPI DUP2 SWAP1 POP JUMPDEST PUSH3 0x633 PUSH3 0x62A DUP6 PUSH3 0x4BF JUMP JUMPDEST DUP4 ADD DUP3 PUSH3 0x5C4 JUMP JUMPDEST POP POP JUMPDEST POP POP POP JUMP JUMPDEST PUSH1 0x0 DUP3 DUP3 SHR SWAP1 POP SWAP3 SWAP2 POP POP JUMP JUMPDEST PUSH1 0x0 PUSH3 0x65B PUSH1 0x0 NOT DUP5 PUSH1 0x8 MUL PUSH3 0x63B JUMP JUMPDEST NOT DUP1 DUP4 AND SWAP2 POP POP SWAP3 SWAP2 POP POP JUMP JUMPDEST PUSH1 0x0 PUSH3 0x676 DUP4 DUP4 PUSH3 0x648 JUMP JUMPDEST SWAP2 POP DUP3 PUSH1 0x2 MUL DUP3 OR SWAP1 POP SWAP3 SWAP2 POP POP JUMP JUMPDEST PUSH3 0x691 DUP3 PUSH3 0x43B JUMP JUMPDEST PUSH8 0xFFFFFFFFFFFFFFFF DUP2 GT ISZERO PUSH3 0x6AD JUMPI PUSH3 0x6AC PUSH3 0x11B JUMP JUMPDEST JUMPDEST PUSH3 0x6B9 DUP3 SLOAD PUSH3 0x475 JUMP JUMPDEST PUSH3 0x6C6 DUP3 DUP3 DUP6 PUSH3 0x5EB JUMP JUMPDEST PUSH1 0x0 PUSH1 0x20 SWAP1 POP PUSH1 0x1F DUP4 GT PUSH1 0x1 DUP2 EQ PUSH3 0x6FE JUMPI PUSH1 0x0 DUP5 ISZERO PUSH3 0x6E9 JUMPI DUP3 DUP8 ADD MLOAD SWAP1 POP JUMPDEST PUSH3 0x6F5 DUP6 DUP3 PUSH3 0x668 JUMP JUMPDEST DUP7 SSTORE POP PUSH3 0x765 JUMP JUMPDEST PUSH1 0x1F NOT DUP5 AND PUSH3 0x70E DUP7 PUSH3 0x4AA JUMP JUMPDEST PUSH1 0x0 JUMPDEST DUP3 DUP2 LT ISZERO PUSH3 0x738 JUMPI DUP5 DUP10 ADD MLOAD DUP3 SSTORE PUSH1 0x1 DUP3 ADD SWAP2 POP PUSH1 0x20 DUP6 ADD SWAP5 POP PUSH1 0x20 DUP2 ADD SWAP1 POP PUSH3 0x711 JUMP JUMPDEST DUP7 DUP4 LT ISZERO PUSH3 0x758 JUMPI DUP5 DUP10 ADD MLOAD PUSH3 0x754 PUSH1 0x1F DUP10 AND DUP3 PUSH3 0x648 JUMP JUMPDEST DUP4 SSTORE POP JUMPDEST PUSH1 0x1 PUSH1 0x2 DUP9 MUL ADD DUP9 SSTORE POP POP POP JUMPDEST POP POP POP POP POP POP JUMP JUMPDEST PUSH2 0xEB0 DUP1 PUSH3 0x77D PUSH1 0x0 CODECOPY PUSH1 0x0 RETURN INVALID PUSH1 0x80 PUSH1 0x40 MSTORE CALLVALUE DUP1 ISZERO PUSH2 0x10 JUMPI PUSH1 0x0 DUP1 REVERT JUMPDEST POP PUSH1 0x4 CALLDATASIZE LT PUSH2 0x62 JUMPI PUSH1 0x0 CALLDATALOAD PUSH1 0xE0 SHR DUP1 PUSH4 0x332D9B9 EQ PUSH2 0x67 JUMPI DUP1 PUSH4 0x14AEB4D6 EQ PUSH2 0x97 JUMPI DUP1 PUSH4 0x5600F04F EQ PUSH2 0xC7 JUMPI DUP1 PUSH4 0x7998A1C4 EQ PUSH2 0xE5 JUMPI DUP1 PUSH4 0x7A014B5C EQ PUSH2 0x103 JUMPI DUP1 PUSH4 0x8DA5CB5B EQ PUSH2 0x121 JUMPI JUMPDEST PUSH1 0x0 DUP1 REVERT JUMPDEST PUSH2 0x81 PUSH1 0x4 DUP1 CALLDATASIZE SUB DUP2 ADD SWAP1 PUSH2 0x7C SWAP2 SWAP1 PUSH2 0x3B5 JUMP JUMPDEST PUSH2 0x13F JUMP JUMPDEST PUSH1 0x40 MLOAD PUSH2 0x8E SWAP2 SWAP1 PUSH2 0x461 JUMP JUMPDEST PUSH1 0x40 MLOAD DUP1 SWAP2 SUB SWAP1 RETURN JUMPDEST PUSH2 0xB1 PUSH1 0x4 DUP1 CALLDATASIZE SUB DUP2 ADD SWAP1 PUSH2 0xAC SWAP2 SWAP1 PUSH2 0x4CC JUMP JUMPDEST PUSH2 0x17E JUMP JUMPDEST PUSH1 0x40 MLOAD PUSH2 0xBE SWAP2 SWAP1 PUSH2 0x461 JUMP JUMPDEST PUSH1 0x40 MLOAD DUP1 SWAP2 SUB SWAP1 RETURN JUMPDEST PUSH2 0xCF PUSH2 0x225 JUMP JUMPDEST PUSH1 0x40 MLOAD PUSH2 0xDC SWAP2 SWAP1 PUSH2 0x589 JUMP JUMPDEST PUSH1 0x40 MLOAD DUP1 SWAP2 SUB SWAP1 RETURN JUMPDEST PUSH2 0xED PUSH2 0x2B3 JUMP JUMPDEST PUSH1 0x40 MLOAD PUSH2 0xFA SWAP2 SWAP1 PUSH2 0x589 JUMP JUMPDEST PUSH1 0x40 MLOAD DUP1 SWAP2 SUB SWAP1 RETURN JUMPDEST PUSH2 0x10B PUSH2 0x341 JUMP JUMPDEST PUSH1 0x40 MLOAD PUSH2 0x118 SWAP2 SWAP1 PUSH2 0x5BA JUMP JUMPDEST PUSH1 0x40 MLOAD DUP1 SWAP2 SUB SWAP1 RETURN JUMPDEST PUSH2 0x129 PUSH2 0x347 JUMP JUMPDEST PUSH1 0x40 MLOAD PUSH2 0x136 SWAP2 SWAP1 PUSH2 0x5F6 JUMP JUMPDEST PUSH1 0x40 MLOAD DUP1 SWAP2 SUB SWAP1 RETURN JUMPDEST PUSH1 0x4 DUP2 DUP2 SLOAD DUP2 LT PUSH2 0x14F JUMPI PUSH1 0x0 DUP1 REVERT JUMPDEST SWAP1 PUSH1 0x0 MSTORE PUSH1 0x20 PUSH1 0x0 KECCAK256 ADD PUSH1 0x0 SWAP2 POP SLOAD SWAP1 PUSH2 0x100 EXP SWAP1 DIV PUSH20 0xFFFFFFFFFFFFFFFFFFFFFFFFFFFFFFFFFFFFFFFF AND DUP2 JUMP JUMPDEST PUSH1 0x0 DUP1 DUP3 ADDRESS PUSH1 0x40 MLOAD PUSH2 0x18F SWAP1 PUSH2 0x36D JUMP JUMPDEST PUSH2 0x19A SWAP3 SWAP2 SWAP1 PUSH2 0x632 JUMP JUMPDEST PUSH1 0x40 MLOAD DUP1 SWAP2 SUB SWAP1 PUSH1 0x0 CREATE DUP1 ISZERO DUP1 ISZERO PUSH2 0x1B6 JUMPI RETURNDATASIZE PUSH1 0x0 DUP1 RETURNDATACOPY RETURNDATASIZE PUSH1 0x0 REVERT JUMPDEST POP SWAP1 POP PUSH1 0x4 DUP2 SWAP1 DUP1 PUSH1 0x1 DUP2 SLOAD ADD DUP1 DUP3 SSTORE DUP1 SWAP2 POP POP PUSH1 0x1 SWAP1 SUB SWAP1 PUSH1 0x0 MSTORE PUSH1 0x20 PUSH1 0x0 KECCAK256 ADD PUSH1 0x0 SWAP1 SWAP2 SWAP1 SWAP2 SWAP1 SWAP2 PUSH2 0x100 EXP DUP2 SLOAD DUP2 PUSH20 0xFFFFFFFFFFFFFFFFFFFFFFFFFFFFFFFFFFFFFFFF MUL NOT AND SWAP1 DUP4 PUSH20 0xFFFFFFFFFFFFFFFFFFFFFFFFFFFFFFFFFFFFFFFF AND MUL OR SWAP1 SSTORE POP DUP1 SWAP2 POP POP SWAP2 SWAP1 POP JUMP JUMPDEST PUSH1 0x1 DUP1 SLOAD PUSH2 0x232 SWAP1 PUSH2 0x68A JUMP JUMPDEST DUP1 PUSH1 0x1F ADD PUSH1 0x20 DUP1 SWAP2 DIV MUL PUSH1 0x20 ADD PUSH1 0x40 MLOAD SWAP1 DUP2 ADD PUSH1 0x40 MSTORE DUP1 SWAP3 SWAP2 SWAP1 DUP2 DUP2 MSTORE PUSH1 0x20 ADD DUP3 DUP1 SLOAD PUSH2 0x25E SWAP1 PUSH2 0x68A JUMP JUMPDEST DUP1 ISZERO PUSH2 0x2AB JUMPI DUP1 PUSH1 0x1F LT PUSH2 0x280 JUMPI PUSH2 0x100 DUP1 DUP4 SLOAD DIV MUL DUP4 MSTORE SWAP2 PUSH1 0x20 ADD SWAP2 PUSH2 0x2AB JUMP JUMPDEST DUP3 ADD SWAP2 SWAP1 PUSH1 0x0 MSTORE PUSH1 0x20 PUSH1 0x0 KECCAK256 SWAP1 JUMPDEST DUP2 SLOAD DUP2 MSTORE SWAP1 PUSH1 0x1 ADD SWAP1 PUSH1 0x20 ADD DUP1 DUP4 GT PUSH2 0x28E JUMPI DUP3 SWAP1 SUB PUSH1 0x1F AND DUP3 ADD SWAP2 JUMPDEST POP POP POP POP POP DUP2 JUMP JUMPDEST PUSH1 0x0 DUP1 SLOAD PUSH2 0x2C0 SWAP1 PUSH2 0x68A JUMP JUMPDEST DUP1 PUSH1 0x1F ADD PUSH1 0x20 DUP1 SWAP2 DIV MUL PUSH1 0x20 ADD PUSH1 0x40 MLOAD SWAP1 DUP2 ADD PUSH1 0x40 MSTORE DUP1 SWAP3 SWAP2 SWAP1 DUP2 DUP2 MSTORE PUSH1 0x20 ADD DUP3 DUP1 SLOAD PUSH2 0x2EC SWAP1 PUSH2 0x68A JUMP JUMPDEST DUP1 ISZERO PUSH2 0x339 JUMPI DUP1 PUSH1 0x1F LT PUSH2 0x30E JUMPI PUSH2 0x100 DUP1 DUP4 SLOAD DIV MUL DUP4 MSTORE SWAP2 PUSH1 0x20 ADD SWAP2 PUSH2 0x339 JUMP JUMPDEST DUP3 ADD SWAP2 SWAP1 PUSH1 0x0 MSTORE PUSH1 0x20 PUSH1 0x0 KECCAK256 SWAP1 JUMPDEST DUP2 SLOAD DUP2 MSTORE SWAP1 PUSH1 0x1 ADD SWAP1 PUSH1 0x20 ADD DUP1 DUP4 GT PUSH2 0x31C JUMPI DUP3 SWAP1 SUB PUSH1 0x1F AND DUP3 ADD SWAP2 JUMPDEST POP POP POP POP POP DUP2 JUMP JUMPDEST PUSH1 0x3 SLOAD DUP2 JUMP JUMPDEST PUSH1 0x2 PUSH1 0x0 SWAP1 SLOAD SWAP1 PUSH2 0x100 EXP SWAP1 DIV PUSH20 0xFFFFFFFFFFFFFFFFFFFFFFFFFFFFFFFFFFFFFFFF AND DUP2 JUMP JUMPDEST PUSH2 0x7BF DUP1 PUSH2 0x6BC DUP4 CODECOPY ADD SWAP1 JUMP JUMPDEST PUSH1 0x0 DUP1 REVERT JUMPDEST PUSH1 0x0 DUP2 SWAP1 POP SWAP2 SWAP1 POP JUMP JUMPDEST PUSH2 0x392 DUP2 PUSH2 0x37F JUMP JUMPDEST DUP2 EQ PUSH2 0x39D JUMPI PUSH1 0x0 DUP1 REVERT JUMPDEST POP JUMP JUMPDEST PUSH1 0x0 DUP2 CALLDATALOAD SWAP1 POP PUSH2 0x3AF DUP2 PUSH2 0x389 JUMP JUMPDEST SWAP3 SWAP2 POP POP JUMP JUMPDEST PUSH1 0x0 PUSH1 0x20 DUP3 DUP5 SUB SLT ISZERO PUSH2 0x3CB JUMPI PUSH2 0x3CA PUSH2 0x37A JUMP JUMPDEST JUMPDEST PUSH1 0x0 PUSH2 0x3D9 DUP5 DUP3 DUP6 ADD PUSH2 0x3A0 JUMP JUMPDEST SWAP2 POP POP SWAP3 SWAP2 POP POP JUMP JUMPDEST PUSH1 0x0 PUSH20 0xFFFFFFFFFFFFFFFFFFFFFFFFFFFFFFFFFFFFFFFF DUP3 AND SWAP1 POP SWAP2 SWAP1 POP JUMP JUMPDEST PUSH1 0x0 DUP2 SWAP1 POP SWAP2 SWAP1 POP JUMP JUMPDEST PUSH1 0x0 PUSH2 0x427 PUSH2 0x422 PUSH2 0x41D DUP5 PUSH2 0x3E2 JUMP JUMPDEST PUSH2 0x402 JUMP JUMPDEST PUSH2 0x3E2 JUMP JUMPDEST SWAP1 POP SWAP2 SWAP1 POP JUMP JUMPDEST PUSH1 0x0 PUSH2 0x439 DUP3 PUSH2 0x40C JUMP JUMPDEST SWAP1 POP SWAP2 SWAP1 POP JUMP JUMPDEST PUSH1 0x0 PUSH2 0x44B DUP3 PUSH2 0x42E JUMP JUMPDEST SWAP1 POP SWAP2 SWAP1 POP JUMP JUMPDEST PUSH2 0x45B DUP2 PUSH2 0x440 JUMP JUMPDEST DUP3 MSTORE POP POP JUMP JUMPDEST PUSH1 0x0 PUSH1 0x20 DUP3 ADD SWAP1 POP PUSH2 0x476 PUSH1 0x0 DUP4 ADD DUP5 PUSH2 0x452 JUMP JUMPDEST SWAP3 SWAP2 POP POP JUMP JUMPDEST PUSH1 0x0 PUSH2 0x487 DUP3 PUSH2 0x3E2 JUMP JUMPDEST SWAP1 POP SWAP2 SWAP1 POP JUMP JUMPDEST PUSH1 0x0 PUSH2 0x499 DUP3 PUSH2 0x47C JUMP JUMPDEST SWAP1 POP SWAP2 SWAP1 POP JUMP JUMPDEST PUSH2 0x4A9 DUP2 PUSH2 0x48E JUMP JUMPDEST DUP2 EQ PUSH2 0x4B4 JUMPI PUSH1 0x0 DUP1 REVERT JUMPDEST POP JUMP JUMPDEST PUSH1 0x0 DUP2 CALLDATALOAD SWAP1 POP PUSH2 0x4C6 DUP2 PUSH2 0x4A0 JUMP JUMPDEST SWAP3 SWAP2 POP POP JUMP JUMPDEST PUSH1 0x0 PUSH1 0x20 DUP3 DUP5 SUB SLT ISZERO PUSH2 0x4E2 JUMPI PUSH2 0x4E1 PUSH2 0x37A JUMP JUMPDEST JUMPDEST PUSH1 0x0 PUSH2 0x4F0 DUP5 DUP3 DUP6 ADD PUSH2 0x4B7 JUMP JUMPDEST SWAP2 POP POP SWAP3 SWAP2 POP POP JUMP JUMPDEST PUSH1 0x0 DUP2 MLOAD SWAP1 POP SWAP2 SWAP1 POP JUMP JUMPDEST PUSH1 0x0 DUP3 DUP3 MSTORE PUSH1 0x20 DUP3 ADD SWAP1 POP SWAP3 SWAP2 POP POP JUMP JUMPDEST PUSH1 0x0 JUMPDEST DUP4 DUP2 LT ISZERO PUSH2 0x533 JUMPI DUP1 DUP3 ADD MLOAD DUP2 DUP5 ADD MSTORE PUSH1 0x20 DUP2 ADD SWAP1 POP PUSH2 0x518 JUMP JUMPDEST PUSH1 0x0 DUP5 DUP5 ADD MSTORE POP POP POP POP JUMP JUMPDEST PUSH1 0x0 PUSH1 0x1F NOT PUSH1 0x1F DUP4 ADD AND SWAP1 POP SWAP2 SWAP1 POP JUMP JUMPDEST PUSH1 0x0 PUSH2 0x55B DUP3 PUSH2 0x4F9 JUMP JUMPDEST PUSH2 0x565 DUP2 DUP6 PUSH2 0x504 JUMP JUMPDEST SWAP4 POP PUSH2 0x575 DUP2 DUP6 PUSH1 0x20 DUP7 ADD PUSH2 0x515 JUMP JUMPDEST PUSH2 0x57E DUP2 PUSH2 0x53F JUMP JUMPDEST DUP5 ADD SWAP2 POP POP SWAP3 SWAP2 POP POP JUMP JUMPDEST PUSH1 0x0 PUSH1 0x20 DUP3 ADD SWAP1 POP DUP2 DUP2 SUB PUSH1 0x0 DUP4 ADD MSTORE PUSH2 0x5A3 DUP2 DUP5 PUSH2 0x550 JUMP JUMPDEST SWAP1 POP SWAP3 SWAP2 POP POP JUMP JUMPDEST PUSH2 0x5B4 DUP2 PUSH2 0x37F JUMP JUMPDEST DUP3 MSTORE POP POP JUMP JUMPDEST PUSH1 0x0 PUSH1 0x20 DUP3 ADD SWAP1 POP PUSH2 0x5CF PUSH1 0x0 DUP4 ADD DUP5 PUSH2 0x5AB JUMP JUMPDEST SWAP3 SWAP2 POP POP JUMP JUMPDEST PUSH1 0x0 PUSH2 0x5E0 DUP3 PUSH2 0x42E JUMP JUMPDEST SWAP1 POP SWAP2 SWAP1 POP JUMP JUMPDEST PUSH2 0x5F0 DUP2 PUSH2 0x5D5 JUMP JUMPDEST DUP3 MSTORE POP POP JUMP JUMPDEST PUSH1 0x0 PUSH1 0x20 DUP3 ADD SWAP1 POP PUSH2 0x60B PUSH1 0x0 DUP4 ADD DUP5 PUSH2 0x5E7 JUMP JUMPDEST SWAP3 SWAP2 POP POP JUMP JUMPDEST PUSH1 0x0 PUSH2 0x61C DUP3 PUSH2 0x42E JUMP JUMPDEST SWAP1 POP SWAP2 SWAP1 POP JUMP JUMPDEST PUSH2 0x62C DUP2 PUSH2 0x611 JUMP JUMPDEST DUP3 MSTORE POP POP JUMP JUMPDEST PUSH1 0x0 PUSH1 0x40 DUP3 ADD SWAP1 POP PUSH2 0x647 PUSH1 0x0 DUP4 ADD DUP6 PUSH2 0x5E7 JUMP JUMPDEST PUSH2 0x654 PUSH1 0x20 DUP4 ADD DUP5 PUSH2 0x623 JUMP JUMPDEST SWAP4 SWAP3 POP POP POP JUMP JUMPDEST PUSH32 0x4E487B7100000000000000000000000000000000000000000000000000000000 PUSH1 0x0 MSTORE PUSH1 0x22 PUSH1 0x4 MSTORE PUSH1 0x24 PUSH1 0x0 REVERT JUMPDEST PUSH1 0x0 PUSH1 0x2 DUP3 DIV SWAP1 POP PUSH1 0x1 DUP3 AND DUP1 PUSH2 0x6A2 JUMPI PUSH1 0x7F DUP3 AND SWAP2 POP JUMPDEST PUSH1 0x20 DUP3 LT DUP2 SUB PUSH2 0x6B5 JUMPI PUSH2 0x6B4 PUSH2 0x65B JUMP JUMPDEST JUMPDEST POP SWAP2 SWAP1 POP JUMP INVALID PUSH1 0x80 PUSH1 0x40 MSTORE PUSH1 0x0 PUSH1 0x1 PUSH1 0x14 PUSH2 0x100 EXP DUP2 SLOAD DUP2 PUSH1 0xFF MUL NOT AND SWAP1 DUP4 ISZERO ISZERO MUL OR SWAP1 SSTORE POP CALLVALUE DUP1 ISZERO PUSH2 0x2B JUMPI PUSH1 0x0 DUP1 REVERT JUMPDEST POP PUSH1 0x40 MLOAD PUSH2 0x7BF CODESIZE SUB DUP1 PUSH2 0x7BF DUP4 CODECOPY DUP2 DUP2 ADD PUSH1 0x40 MSTORE DUP2 ADD SWAP1 PUSH2 0x4D SWAP2 SWAP1 PUSH2 0x188 JUMP JUMPDEST DUP2 PUSH1 0x0 DUP1 PUSH2 0x100 EXP DUP2 SLOAD DUP2 PUSH20 0xFFFFFFFFFFFFFFFFFFFFFFFFFFFFFFFFFFFFFFFF MUL NOT AND SWAP1 DUP4 PUSH20 0xFFFFFFFFFFFFFFFFFFFFFFFFFFFFFFFFFFFFFFFF AND MUL OR SWAP1 SSTORE POP DUP1 PUSH1 0x1 PUSH1 0x0 PUSH2 0x100 EXP DUP2 SLOAD DUP2 PUSH20 0xFFFFFFFFFFFFFFFFFFFFFFFFFFFFFFFFFFFFFFFF MUL NOT AND SWAP1 DUP4 PUSH20 0xFFFFFFFFFFFFFFFFFFFFFFFFFFFFFFFFFFFFFFFF AND MUL OR SWAP1 SSTORE POP POP POP PUSH2 0x1C8 JUMP JUMPDEST PUSH1 0x0 DUP1 REVERT JUMPDEST PUSH1 0x0 PUSH20 0xFFFFFFFFFFFFFFFFFFFFFFFFFFFFFFFFFFFFFFFF DUP3 AND SWAP1 POP SWAP2 SWAP1 POP JUMP JUMPDEST PUSH1 0x0 PUSH2 0x105 DUP3 PUSH2 0xDA JUMP JUMPDEST SWAP1 POP SWAP2 SWAP1 POP JUMP JUMPDEST PUSH1 0x0 PUSH2 0x117 DUP3 PUSH2 0xFA JUMP JUMPDEST SWAP1 POP SWAP2 SWAP1 POP JUMP JUMPDEST PUSH2 0x127 DUP2 PUSH2 0x10C JUMP JUMPDEST DUP2 EQ PUSH2 0x132 JUMPI PUSH1 0x0 DUP1 REVERT JUMPDEST POP JUMP JUMPDEST PUSH1 0x0 DUP2 MLOAD SWAP1 POP PUSH2 0x144 DUP2 PUSH2 0x11E JUMP JUMPDEST SWAP3 SWAP2 POP POP JUMP JUMPDEST PUSH1 0x0 PUSH2 0x155 DUP3 PUSH2 0xFA JUMP JUMPDEST SWAP1 POP SWAP2 SWAP1 POP JUMP JUMPDEST PUSH2 0x165 DUP2 PUSH2 0x14A JUMP JUMPDEST DUP2 EQ PUSH2 0x170 JUMPI PUSH1 0x0 DUP1 REVERT JUMPDEST POP JUMP JUMPDEST PUSH1 0x0 DUP2 MLOAD SWAP1 POP PUSH2 0x182 DUP2 PUSH2 0x15C JUMP JUMPDEST SWAP3 SWAP2 POP POP JUMP JUMPDEST PUSH1 0x0 DUP1 PUSH1 0x40 DUP4 DUP6 SUB SLT ISZERO PUSH2 0x19F JUMPI PUSH2 0x19E PUSH2 0xD5 JUMP JUMPDEST JUMPDEST PUSH1 0x0 PUSH2 0x1AD DUP6 DUP3 DUP7 ADD PUSH2 0x135 JUMP JUMPDEST SWAP3 POP POP PUSH1 0x20 PUSH2 0x1BE DUP6 DUP3 DUP7 ADD PUSH2 0x173 JUMP JUMPDEST SWAP2 POP POP SWAP3 POP SWAP3 SWAP1 POP JUMP JUMPDEST PUSH2 0x5E8 DUP1 PUSH2 0x1D7 PUSH1 0x0 CODECOPY PUSH1 0x0 RETURN INVALID PUSH1 0x80 PUSH1 0x40 MSTORE CALLVALUE DUP1 ISZERO PUSH2 0x10 JUMPI PUSH1 0x0 DUP1 REVERT JUMPDEST POP PUSH1 0x4 CALLDATASIZE LT PUSH2 0x36 JUMPI PUSH1 0x0 CALLDATALOAD PUSH1 0xE0 SHR DUP1 PUSH4 0x1BCBF15F EQ PUSH2 0x3B JUMPI DUP1 PUSH4 0xBB1F548A EQ PUSH2 0x57 JUMPI JUMPDEST PUSH1 0x0 DUP1 REVERT JUMPDEST PUSH2 0x55 PUSH1 0x4 DUP1 CALLDATASIZE SUB DUP2 ADD SWAP1 PUSH2 0x50 SWAP2 SWAP1 PUSH2 0x211 JUMP JUMPDEST PUSH2 0x61 JUMP JUMPDEST STOP JUMPDEST PUSH2 0x5F PUSH2 0x115 JUMP JUMPDEST STOP JUMPDEST CALLER PUSH20 0xFFFFFFFFFFFFFFFFFFFFFFFFFFFFFFFFFFFFFFFF AND PUSH1 0x1 PUSH1 0x0 SWAP1 SLOAD SWAP1 PUSH2 0x100 EXP SWAP1 DIV PUSH20 0xFFFFFFFFFFFFFFFFFFFFFFFFFFFFFFFFFFFFFFFF AND PUSH20 0xFFFFFFFFFFFFFFFFFFFFFFFFFFFFFFFFFFFFFFFF AND PUSH20 0xFFFFFFFFFFFFFFFFFFFFFFFFFFFFFFFFFFFFFFFF AND EQ PUSH2 0xD1 JUMPI PUSH1 0x0 DUP1 REVERT JUMPDEST DUP4 DUP4 PUSH1 0x2 SWAP2 DUP3 PUSH2 0xE2 SWAP3 SWAP2 SWAP1 PUSH2 0x4E2 JUMP JUMPDEST POP DUP2 DUP2 PUSH1 0x3 SWAP2 DUP3 PUSH2 0xF4 SWAP3 SWAP2 SWAP1 PUSH2 0x4E2 JUMP JUMPDEST POP PUSH1 0x1 DUP1 PUSH1 0x14 PUSH2 0x100 EXP DUP2 SLOAD DUP2 PUSH1 0xFF MUL NOT AND SWAP1 DUP4 ISZERO ISZERO MUL OR SWAP1 SSTORE POP POP POP POP POP JUMP JUMPDEST CALLER PUSH20 0xFFFFFFFFFFFFFFFFFFFFFFFFFFFFFFFFFFFFFFFF AND PUSH1 0x1 PUSH1 0x0 SWAP1 SLOAD SWAP1 PUSH2 0x100 EXP SWAP1 DIV PUSH20 0xFFFFFFFFFFFFFFFFFFFFFFFFFFFFFFFFFFFFFFFF AND PUSH20 0xFFFFFFFFFFFFFFFFFFFFFFFFFFFFFFFFFFFFFFFF AND PUSH20 0xFFFFFFFFFFFFFFFFFFFFFFFFFFFFFFFFFFFFFFFF AND EQ PUSH2 0x185 JUMPI PUSH1 0x0 DUP1 REVERT JUMPDEST PUSH1 0x0 PUSH1 0x1 PUSH1 0x14 PUSH2 0x100 EXP DUP2 SLOAD DUP2 PUSH1 0xFF MUL NOT AND SWAP1 DUP4 ISZERO ISZERO MUL OR SWAP1 SSTORE POP JUMP JUMPDEST PUSH1 0x0 DUP1 REVERT JUMPDEST PUSH1 0x0 DUP1 REVERT JUMPDEST PUSH1 0x0 DUP1 REVERT JUMPDEST PUSH1 0x0 DUP1 REVERT JUMPDEST PUSH1 0x0 DUP1 REVERT JUMPDEST PUSH1 0x0 DUP1 DUP4 PUSH1 0x1F DUP5 ADD SLT PUSH2 0x1D1 JUMPI PUSH2 0x1D0 PUSH2 0x1AC JUMP JUMPDEST JUMPDEST DUP3 CALLDATALOAD SWAP1 POP PUSH8 0xFFFFFFFFFFFFFFFF DUP2 GT ISZERO PUSH2 0x1EE JUMPI PUSH2 0x1ED PUSH2 0x1B1 JUMP JUMPDEST JUMPDEST PUSH1 0x20 DUP4 ADD SWAP2 POP DUP4 PUSH1 0x1 DUP3 MUL DUP4 ADD GT ISZERO PUSH2 0x20A JUMPI PUSH2 0x209 PUSH2 0x1B6 JUMP JUMPDEST JUMPDEST SWAP3 POP SWAP3 SWAP1 POP JUMP JUMPDEST PUSH1 0x0 DUP1 PUSH1 0x0 DUP1 PUSH1 0x40 DUP6 DUP8 SUB SLT ISZERO PUSH2 0x22B JUMPI PUSH2 0x22A PUSH2 0x1A2 JUMP JUMPDEST JUMPDEST PUSH1 0x0 DUP6 ADD CALLDATALOAD PUSH8 0xFFFFFFFFFFFFFFFF DUP2 GT ISZERO PUSH2 0x249 JUMPI PUSH2 0x248 PUSH2 0x1A7 JUMP JUMPDEST JUMPDEST PUSH2 0x255 DUP8 DUP3 DUP9 ADD PUSH2 0x1BB JUMP JUMPDEST SWAP5 POP SWAP5 POP POP PUSH1 0x20 DUP6 ADD CALLDATALOAD PUSH8 0xFFFFFFFFFFFFFFFF DUP2 GT ISZERO PUSH2 0x278 JUMPI PUSH2 0x277 PUSH2 0x1A7 JUMP JUMPDEST JUMPDEST PUSH2 0x284 DUP8 DUP3 DUP9 ADD PUSH2 0x1BB JUMP JUMPDEST SWAP3 POP SWAP3 POP POP SWAP3 SWAP6 SWAP2 SWAP5 POP SWAP3 POP JUMP JUMPDEST PUSH1 0x0 DUP3 SWAP1 POP SWAP3 SWAP2 POP POP JUMP JUMPDEST PUSH32 0x4E487B7100000000000000000000000000000000000000000000000000000000 PUSH1 0x0 MSTORE PUSH1 0x41 PUSH1 0x4 MSTORE PUSH1 0x24 PUSH1 0x0 REVERT JUMPDEST PUSH32 0x4E487B7100000000000000000000000000000000000000000000000000000000 PUSH1 0x0 MSTORE PUSH1 0x22 PUSH1 0x4 MSTORE PUSH1 0x24 PUSH1 0x0 REVERT JUMPDEST PUSH1 0x0 PUSH1 0x2 DUP3 DIV SWAP1 POP PUSH1 0x1 DUP3 AND DUP1 PUSH2 0x313 JUMPI PUSH1 0x7F DUP3 AND SWAP2 POP JUMPDEST PUSH1 0x20 DUP3 LT DUP2 SUB PUSH2 0x326 JUMPI PUSH2 0x325 PUSH2 0x2CC JUMP JUMPDEST JUMPDEST POP SWAP2 SWAP1 POP JUMP JUMPDEST PUSH1 0x0 DUP2 SWAP1 POP DUP2 PUSH1 0x0 MSTORE PUSH1 0x20 PUSH1 0x0 KECCAK256 SWAP1 POP SWAP2 SWAP1 POP JUMP JUMPDEST PUSH1 0x0 PUSH1 0x20 PUSH1 0x1F DUP4 ADD DIV SWAP1 POP SWAP2 SWAP1 POP JUMP JUMPDEST PUSH1 0x0 DUP3 DUP3 SHL SWAP1 POP SWAP3 SWAP2 POP POP JUMP JUMPDEST PUSH1 0x0 PUSH1 0x8 DUP4 MUL PUSH2 0x38E PUSH32 0xFFFFFFFFFFFFFFFFFFFFFFFFFFFFFFFFFFFFFFFFFFFFFFFFFFFFFFFFFFFFFFFF DUP3 PUSH2 0x351 JUMP JUMPDEST PUSH2 0x398 DUP7 DUP4 PUSH2 0x351 JUMP JUMPDEST SWAP6 POP DUP1 NOT DUP5 AND SWAP4 POP DUP1 DUP7 AND DUP5 OR SWAP3 POP POP POP SWAP4 SWAP3 POP POP POP JUMP JUMPDEST PUSH1 0x0 DUP2 SWAP1 POP SWAP2 SWAP1 POP JUMP JUMPDEST PUSH1 0x0 DUP2 SWAP1 POP SWAP2 SWAP1 POP JUMP JUMPDEST PUSH1 0x0 PUSH2 0x3DF PUSH2 0x3DA PUSH2 0x3D5 DUP5 PUSH2 0x3B0 JUMP JUMPDEST PUSH2 0x3BA JUMP JUMPDEST PUSH2 0x3B0 JUMP JUMPDEST SWAP1 POP SWAP2 SWAP1 POP JUMP JUMPDEST PUSH1 0x0 DUP2 SWAP1 POP SWAP2 SWAP1 POP JUMP JUMPDEST PUSH2 0x3F9 DUP4 PUSH2 0x3C4 JUMP JUMPDEST PUSH2 0x40D PUSH2 0x405 DUP3 PUSH2 0x3E6 JUMP JUMPDEST DUP5 DUP5 SLOAD PUSH2 0x35E JUMP JUMPDEST DUP3 SSTORE POP POP POP POP JUMP JUMPDEST PUSH1 0x0 SWAP1 JUMP JUMPDEST PUSH2 0x422 PUSH2 0x415 JUMP JUMPDEST PUSH2 0x42D DUP2 DUP5 DUP5 PUSH2 0x3F0 JUMP JUMPDEST POP POP POP JUMP JUMPDEST JUMPDEST DUP2 DUP2 LT ISZERO PUSH2 0x451 JUMPI PUSH2 0x446 PUSH1 0x0 DUP3 PUSH2 0x41A JUMP JUMPDEST PUSH1 0x1 DUP2 ADD SWAP1 POP PUSH2 0x433 JUMP JUMPDEST POP POP JUMP JUMPDEST PUSH1 0x1F DUP3 GT ISZERO PUSH2 0x496 JUMPI PUSH2 0x467 DUP2 PUSH2 0x32C JUMP JUMPDEST PUSH2 0x470 DUP5 PUSH2 0x341 JUMP JUMPDEST DUP2 ADD PUSH1 0x20 DUP6 LT ISZERO PUSH2 0x47F JUMPI DUP2 SWAP1 POP JUMPDEST PUSH2 0x493 PUSH2 0x48B DUP6 PUSH2 0x341 JUMP JUMPDEST DUP4 ADD DUP3 PUSH2 0x432 JUMP JUMPDEST POP POP JUMPDEST POP POP POP JUMP JUMPDEST PUSH1 0x0 DUP3 DUP3 SHR SWAP1 POP SWAP3 SWAP2 POP POP JUMP JUMPDEST PUSH1 0x0 PUSH2 0x4B9 PUSH1 0x0 NOT DUP5 PUSH1 0x8 MUL PUSH2 0x49B JUMP JUMPDEST NOT DUP1 DUP4 AND SWAP2 POP POP SWAP3 SWAP2 POP POP JUMP JUMPDEST PUSH1 0x0 PUSH2 0x4D2 DUP4 DUP4 PUSH2 0x4A8 JUMP JUMPDEST SWAP2 POP DUP3 PUSH1 0x2 MUL DUP3 OR SWAP1 POP SWAP3 SWAP2 POP POP JUMP JUMPDEST PUSH2 0x4EC DUP4 DUP4 PUSH2 0x292 JUMP JUMPDEST PUSH8 0xFFFFFFFFFFFFFFFF DUP2 GT ISZERO PUSH2 0x505 JUMPI PUSH2 0x504 PUSH2 0x29D JUMP JUMPDEST JUMPDEST PUSH2 0x50F DUP3 SLOAD PUSH2 0x2FB JUMP JUMPDEST PUSH2 0x51A DUP3 DUP3 DUP6 PUSH2 0x455 JUMP JUMPDEST PUSH1 0x0 PUSH1 0x1F DUP4 GT PUSH1 0x1 DUP2 EQ PUSH2 0x549 JUMPI PUSH1 0x0 DUP5 ISZERO PUSH2 0x537 JUMPI DUP3 DUP8 ADD CALLDATALOAD SWAP1 POP JUMPDEST PUSH2 0x541 DUP6 DUP3 PUSH2 0x4C6 JUMP JUMPDEST DUP7 SSTORE POP PUSH2 0x5A9 JUMP JUMPDEST PUSH1 0x1F NOT DUP5 AND PUSH2 0x557 DUP7 PUSH2 0x32C JUMP JUMPDEST PUSH1 0x0 JUMPDEST DUP3 DUP2 LT ISZERO PUSH2 0x57F JUMPI DUP5 DUP10 ADD CALLDATALOAD DUP3 SSTORE PUSH1 0x1 DUP3 ADD SWAP2 POP PUSH1 0x20 DUP6 ADD SWAP5 POP PUSH1 0x20 DUP2 ADD SWAP1 POP PUSH2 0x55A JUMP JUMPDEST DUP7 DUP4 LT ISZERO PUSH2 0x59C JUMPI DUP5 DUP10 ADD CALLDATALOAD PUSH2 0x598 PUSH1 0x1F DUP10 AND DUP3 PUSH2 0x4A8 JUMP JUMPDEST DUP4 SSTORE POP JUMPDEST PUSH1 0x1 PUSH1 0x2 DUP9 MUL ADD DUP9 SSTORE POP POP POP JUMPDEST POP POP POP POP POP POP POP JUMP INVALID LOG2 PUSH5 0x6970667358 0x22 SLT KECCAK256 BYTE SWAP13 PUSH25 0x32DED41B922476207434ED6A8979E92A303C6C9743DE0A516D DIV PUSH16 0x71A964736F6C63430008110033A26469 PUSH17 0x6673582212205F64244BF14082AAC46659 SAR NOT DUP13 LOG2 0xCE 0x4D 0xBF CREATE2 DUP4 DUP5 0x23 XOR 0xCF 0xEE PUSH12 0xACF0E2406F9364736F6C6343 STOP ADDMOD GT STOP CALLER LOG2 PUSH5 0x6970667358 0x22 SLT KECCAK256 0x5F DUP4 0xD4 0x49 0xA7 SWAP7 DUP1 0xEE PUSH20 0xB77D87D2B281F3C3D9FDFFEEF1AB186AC2A35C20 0xFC MULMOD 0xD4 PUSH5 0x736F6C6343 STOP ADDMOD GT STOP CALLER "
		},
		"gasEstimates": {
			"creation": {
				"codeDepositCost": "1473800",
				"executionCost": "infinite",
				"totalCost": "infinite"
			},
			"external": {
				"createDataContract(string,string)": "infinite",
				"identifier()": "infinite",
				"owner()": "2533",
				"publicKey()": "infinite"
			}
		},
		"methodIdentifiers": {
			"createDataContract(string,string)": "dfae7d25",
			"identifier()": "7998a1c4",
			"owner()": "8da5cb5b",
			"publicKey()": "63ffab31"
		}
	},
	"abi": [
		{
			"inputs": [
				{
					"internalType": "string",
					"name": "_identifier",
					"type": "string"
				},
				{
					"internalType": "string",
					"name": "_publicKey",
					"type": "string"
				}
			],
			"stateMutability": "nonpayable",
			"type": "constructor"
		},
		{
			"inputs": [
				{
					"internalType": "string",
					"name": "_identifier",
					"type": "string"
				},
				{
					"internalType": "string",
					"name": "_url",
					"type": "string"
				}
			],
			"name": "createDataContract",
			"outputs": [
				{
					"internalType": "contract DataContract",
					"name": "",
					"type": "address"
				}
			],
			"stateMutability": "nonpayable",
			"type": "function"
		},
		{
			"inputs": [],
			"name": "identifier",
			"outputs": [
				{
					"internalType": "string",
					"name": "",
					"type": "string"
				}
			],
			"stateMutability": "view",
			"type": "function"
		},
		{
			"inputs": [],
			"name": "owner",
			"outputs": [
				{
					"internalType": "address",
					"name": "",
					"type": "address"
				}
			],
			"stateMutability": "view",
			"type": "function"
		},
		{
			"inputs": [],
			"name": "publicKey",
			"outputs": [
				{
					"internalType": "string",
					"name": "",
					"type": "string"
				}
			],
			"stateMutability": "view",
			"type": "function"
		}
	]
}